{
  "contractName": "EHR",
  "abi": [
    {
      "anonymous": false,
      "inputs": [
        {
          "indexed": true,
          "internalType": "address",
          "name": "_patient",
          "type": "address"
        },
        {
          "indexed": true,
          "internalType": "address",
          "name": "_doctor",
          "type": "address"
        },
        {
          "indexed": false,
          "internalType": "bool",
          "name": "isAuthorized",
          "type": "bool"
        }
      ],
      "name": "DoctorAuth",
      "type": "event"
    },
    {
      "anonymous": false,
      "inputs": [
        {
          "indexed": false,
          "internalType": "string",
          "name": "_doctorFirstName",
          "type": "string"
        },
        {
          "indexed": false,
          "internalType": "string",
          "name": "_doctorLastName",
          "type": "string"
        },
        {
          "indexed": true,
          "internalType": "address",
          "name": "_doctorAddress",
          "type": "address"
        },
        {
          "indexed": false,
          "internalType": "bytes",
          "name": "_doctorPublicKey",
          "type": "bytes"
        }
      ],
      "name": "DoctorCreation",
      "type": "event"
    },
    {
      "anonymous": false,
      "inputs": [
        {
          "indexed": true,
          "internalType": "address",
          "name": "_patient",
          "type": "address"
        },
        {
          "indexed": true,
          "internalType": "address",
          "name": "_updator",
          "type": "address"
        },
        {
          "indexed": false,
          "internalType": "bytes32",
          "name": "fileHash",
          "type": "bytes32"
        }
      ],
      "name": "MedicalRecordUpdate",
      "type": "event"
    },
    {
      "anonymous": false,
      "inputs": [
        {
          "indexed": true,
          "internalType": "address",
          "name": "_patient",
          "type": "address"
        },
        {
          "indexed": true,
          "internalType": "address",
          "name": "_viewer",
          "type": "address"
        }
      ],
      "name": "MedicalRecordView",
      "type": "event"
    },
    {
      "anonymous": false,
      "inputs": [
        {
          "indexed": false,
          "internalType": "string",
          "name": "_patientFirstName",
          "type": "string"
        },
        {
          "indexed": false,
          "internalType": "string",
          "name": "_patientLastName",
          "type": "string"
        },
        {
          "indexed": true,
          "internalType": "address",
          "name": "_patientAddress",
          "type": "address"
        },
        {
          "indexed": false,
          "internalType": "bytes",
          "name": "_patientPublicKey",
          "type": "bytes"
        },
        {
          "indexed": true,
          "internalType": "address",
          "name": "_doctor",
          "type": "address"
        }
      ],
      "name": "PatientCreation",
      "type": "event"
    },
    {
      "inputs": [
        {
          "internalType": "string",
          "name": "_firstName",
          "type": "string"
        },
        {
          "internalType": "string",
          "name": "_lastName",
          "type": "string"
        },
        {
          "internalType": "address",
          "name": "_patientAddress",
          "type": "address"
        },
        {
          "internalType": "bytes",
          "name": "_patientPublicKey",
          "type": "bytes"
        }
      ],
      "name": "createPatient",
      "outputs": [],
      "stateMutability": "nonpayable",
      "type": "function"
    },
    {
      "inputs": [
        {
          "internalType": "string",
          "name": "_firstName",
          "type": "string"
        },
        {
          "internalType": "string",
          "name": "_lastName",
          "type": "string"
        },
        {
          "internalType": "address",
          "name": "_doctorAddress",
          "type": "address"
        },
        {
          "internalType": "bytes",
          "name": "_doctorPublicKey",
          "type": "bytes"
        }
      ],
      "name": "createDoctor",
      "outputs": [],
      "stateMutability": "nonpayable",
      "type": "function"
    },
    {
      "inputs": [
        {
          "internalType": "address",
          "name": "_doctorAddress",
          "type": "address"
        }
      ],
      "name": "authorizeDoctor",
      "outputs": [],
      "stateMutability": "nonpayable",
      "type": "function"
    },
    {
      "inputs": [
        {
          "internalType": "address",
          "name": "_doctorAddress",
          "type": "address"
        }
      ],
      "name": "deauthorizeDoctor",
      "outputs": [],
      "stateMutability": "nonpayable",
      "type": "function"
    },
    {
      "inputs": [
        {
          "internalType": "address",
          "name": "_patientAddress",
          "type": "address"
        },
        {
          "internalType": "bytes32",
          "name": "_hash",
          "type": "bytes32"
        }
      ],
      "name": "updateRecordHash",
      "outputs": [],
      "stateMutability": "nonpayable",
      "type": "function"
    },
    {
      "inputs": [
        {
          "internalType": "address",
          "name": "_patientAddress",
          "type": "address"
        }
      ],
      "name": "patientExists",
      "outputs": [
        {
          "internalType": "bool",
          "name": "",
          "type": "bool"
        }
      ],
      "stateMutability": "view",
      "type": "function",
      "constant": true
    },
    {
      "inputs": [
        {
          "internalType": "address",
          "name": "_doctorAddress",
          "type": "address"
        }
      ],
      "name": "doctorExists",
      "outputs": [
        {
          "internalType": "bool",
          "name": "",
          "type": "bool"
        }
      ],
      "stateMutability": "view",
      "type": "function",
      "constant": true
    },
    {
      "inputs": [
        {
          "internalType": "address",
          "name": "_doctorAddress",
          "type": "address"
        },
        {
          "internalType": "address",
          "name": "_patientAddress",
          "type": "address"
        }
      ],
      "name": "doctorAuthorized",
      "outputs": [
        {
          "internalType": "bool",
          "name": "",
          "type": "bool"
        }
      ],
      "stateMutability": "view",
      "type": "function",
      "constant": true
    },
    {
      "inputs": [
        {
          "internalType": "bytes",
          "name": "pubkey",
          "type": "bytes"
        }
      ],
      "name": "getAddress",
      "outputs": [
        {
          "internalType": "address",
          "name": "",
          "type": "address"
        }
      ],
      "stateMutability": "pure",
      "type": "function",
      "constant": true
    },
    {
      "inputs": [
        {
          "internalType": "address",
          "name": "_patientAddress",
          "type": "address"
        }
      ],
      "name": "getEHRHash",
      "outputs": [
        {
          "internalType": "bytes32",
          "name": "",
          "type": "bytes32"
        }
      ],
      "stateMutability": "view",
      "type": "function",
      "constant": true
    },
    {
      "inputs": [
        {
          "internalType": "address",
          "name": "_patientAddress",
          "type": "address"
        }
      ],
      "name": "getPatientFirstName",
      "outputs": [
        {
          "internalType": "string",
          "name": "",
          "type": "string"
        }
      ],
      "stateMutability": "view",
      "type": "function",
      "constant": true
    },
    {
      "inputs": [
        {
          "internalType": "address",
          "name": "_patientAddress",
          "type": "address"
        }
      ],
      "name": "getPatientLastName",
      "outputs": [
        {
          "internalType": "string",
          "name": "",
          "type": "string"
        }
      ],
      "stateMutability": "view",
      "type": "function",
      "constant": true
    },
    {
      "inputs": [
        {
          "internalType": "address",
          "name": "_doctorAddress",
          "type": "address"
        }
      ],
      "name": "getDoctorFirstName",
      "outputs": [
        {
          "internalType": "string",
          "name": "",
          "type": "string"
        }
      ],
      "stateMutability": "view",
      "type": "function",
      "constant": true
    },
    {
      "inputs": [
        {
          "internalType": "address",
          "name": "_doctorAddress",
          "type": "address"
        }
      ],
      "name": "getDoctorLastName",
      "outputs": [
        {
          "internalType": "string",
          "name": "",
          "type": "string"
        }
      ],
      "stateMutability": "view",
      "type": "function",
      "constant": true
    },
    {
      "inputs": [
        {
          "internalType": "address",
          "name": "_address",
          "type": "address"
        }
      ],
      "name": "getPublicKey",
      "outputs": [
        {
          "internalType": "bytes",
          "name": "",
          "type": "bytes"
        }
      ],
      "stateMutability": "view",
      "type": "function",
      "constant": true
    },
    {
      "inputs": [],
      "name": "getDoctorCount",
      "outputs": [
        {
          "internalType": "uint256",
          "name": "",
          "type": "uint256"
        }
      ],
      "stateMutability": "view",
      "type": "function",
      "constant": true
    },
    {
      "inputs": [],
      "name": "getPatientCount",
      "outputs": [
        {
          "internalType": "uint256",
          "name": "",
          "type": "uint256"
        }
      ],
      "stateMutability": "view",
      "type": "function",
      "constant": true
    },
    {
      "inputs": [
        {
          "internalType": "bytes",
          "name": "signature",
          "type": "bytes"
        }
      ],
      "name": "splitSignature",
      "outputs": [
        {
          "internalType": "uint8",
          "name": "v",
          "type": "uint8"
        },
        {
          "internalType": "bytes32",
          "name": "r",
          "type": "bytes32"
        },
        {
          "internalType": "bytes32",
          "name": "s",
          "type": "bytes32"
        }
      ],
      "stateMutability": "pure",
      "type": "function",
      "constant": true
    },
    {
      "inputs": [
        {
          "internalType": "bytes32",
          "name": "messagehash",
          "type": "bytes32"
        },
        {
          "internalType": "uint8",
          "name": "v",
          "type": "uint8"
        },
        {
          "internalType": "bytes32",
          "name": "r",
          "type": "bytes32"
        },
        {
          "internalType": "bytes32",
          "name": "s",
          "type": "bytes32"
        }
      ],
      "name": "recoverPublicAddress",
      "outputs": [
        {
          "internalType": "address",
          "name": "sender",
          "type": "address"
        }
      ],
      "stateMutability": "pure",
      "type": "function",
      "constant": true
    }
  ],
  "bytecode": "0x608060405260008055600060015534801561001957600080fd5b5061256d806100296000396000f3fe608060405234801561001057600080fd5b50600436106101215760003560e01c8063a7bb5803116100ad578063c190665b11610071578063c190665b14610366578063c47cf5de14610384578063d08acd4d146103b4578063edaf4799146103e4578063f4863bed1461041457610121565b8063a7bb58031461029c578063ac95b0f3146102ce578063afd9a94c146102fe578063b163b3651461031a578063b74be8001461033657610121565b80635ab361ef116100f45780635ab361ef146101d257806379111c1c146101ee5780638474bc021461020c578063857cdbb81461023c5780638d230ac31461026c57610121565b80632ad230a91461012657806351710f031461015657806352e9e8a01461018657806358c9202c146101b6575b600080fd5b610140600480360381019061013b9190611d3a565b610430565b60405161014d9190611d82565b60405180910390f35b610170600480360381019061016b9190611d3a565b610489565b60405161017d9190611d82565b60405180910390f35b6101a0600480360381019061019b9190611e0c565b6104e2565b6040516101ad9190611e82565b60405180910390f35b6101d060048036038101906101cb9190611d3a565b61053d565b005b6101ec60048036038101906101e79190611d3a565b610785565b005b6101f66109cc565b6040516102039190611eb6565b60405180910390f35b61022660048036038101906102219190611d3a565b6109d6565b6040516102339190611f6a565b60405180910390f35b61025660048036038101906102519190611d3a565b610b03565b6040516102639190611fe1565b60405180910390f35b61028660048036038101906102819190611d3a565b610daf565b6040516102939190611f6a565b60405180910390f35b6102b660048036038101906102b19190612138565b610edc565b6040516102c59392919061219f565b60405180910390f35b6102e860048036038101906102e39190611d3a565b610f0e565b6040516102f59190611f6a565b60405180910390f35b610318600480360381019061031391906121d6565b61103b565b005b610334600480360381019061032f91906122b7565b611223565b005b610350600480360381019061034b9190612372565b61144d565b60405161035d9190611d82565b60405180910390f35b61036e611595565b60405161037b9190611eb6565b60405180910390f35b61039e60048036038101906103999190612138565b61159e565b6040516103ab9190611e82565b60405180910390f35b6103ce60048036038101906103c99190611d3a565b6115b2565b6040516103db9190611f6a565b60405180910390f35b6103fe60048036038101906103f99190611d3a565b6116df565b60405161040b91906123b2565b60405180910390f35b61042e600480360381019061042991906122b7565b611784565b005b6000600360008373ffffffffffffffffffffffffffffffffffffffff1673ffffffffffffffffffffffffffffffffffffffff16815260200190815260200160002060030160009054906101000a900460ff169050919050565b6000600260008373ffffffffffffffffffffffffffffffffffffffff1673ffffffffffffffffffffffffffffffffffffffff16815260200190815260200160002060040160009054906101000a900460ff169050919050565b60006001858585856040516000815260200160405260405161050794939291906123cd565b6020604051602081039080840390855afa158015610529573d6000803e3d6000fd5b505050602060405103519050949350505050565b600360008273ffffffffffffffffffffffffffffffffffffffff1673ffffffffffffffffffffffffffffffffffffffff16815260200190815260200160002060030160009054906101000a900460ff1680156105e55750600260003373ffffffffffffffffffffffffffffffffffffffff1673ffffffffffffffffffffffffffffffffffffffff16815260200190815260200160002060040160009054906101000a900460ff165b801561067b5750600260003373ffffffffffffffffffffffffffffffffffffffff1673ffffffffffffffffffffffffffffffffffffffff16815260200190815260200160002060030160008273ffffffffffffffffffffffffffffffffffffffff1673ffffffffffffffffffffffffffffffffffffffff16815260200190815260200160002060009054906101000a900460ff16155b61068457600080fd5b6001600260003373ffffffffffffffffffffffffffffffffffffffff1673ffffffffffffffffffffffffffffffffffffffff16815260200190815260200160002060030160008373ffffffffffffffffffffffffffffffffffffffff1673ffffffffffffffffffffffffffffffffffffffff16815260200190815260200160002060006101000a81548160ff0219169083151502179055508073ffffffffffffffffffffffffffffffffffffffff163373ffffffffffffffffffffffffffffffffffffffff167f58efeaa91070e02fbcbc866786a01ab2d142a9df696ebcd9fd1515e0954377fd600160405161077a9190611d82565b60405180910390a350565b600360008273ffffffffffffffffffffffffffffffffffffffff1673ffffffffffffffffffffffffffffffffffffffff16815260200190815260200160002060030160009054906101000a900460ff16801561082d5750600260003373ffffffffffffffffffffffffffffffffffffffff1673ffffffffffffffffffffffffffffffffffffffff16815260200190815260200160002060040160009054906101000a900460ff165b80156108c25750600260003373ffffffffffffffffffffffffffffffffffffffff1673ffffffffffffffffffffffffffffffffffffffff16815260200190815260200160002060030160008273ffffffffffffffffffffffffffffffffffffffff1673ffffffffffffffffffffffffffffffffffffffff16815260200190815260200160002060009054906101000a900460ff165b6108cb57600080fd5b6000600260003373ffffffffffffffffffffffffffffffffffffffff1673ffffffffffffffffffffffffffffffffffffffff16815260200190815260200160002060030160008373ffffffffffffffffffffffffffffffffffffffff1673ffffffffffffffffffffffffffffffffffffffff16815260200190815260200160002060006101000a81548160ff0219169083151502179055508073ffffffffffffffffffffffffffffffffffffffff163373ffffffffffffffffffffffffffffffffffffffff167f58efeaa91070e02fbcbc866786a01ab2d142a9df696ebcd9fd1515e0954377fd60006040516109c19190611d82565b60405180910390a350565b6000600154905090565b6060600260008373ffffffffffffffffffffffffffffffffffffffff1673ffffffffffffffffffffffffffffffffffffffff16815260200190815260200160002060040160009054906101000a900460ff16610a3157600080fd5b600260008373ffffffffffffffffffffffffffffffffffffffff1673ffffffffffffffffffffffffffffffffffffffff1681526020019081526020016000206000018054610a7e90612441565b80601f0160208091040260200160405190810160405280929190818152602001828054610aaa90612441565b8015610af75780601f10610acc57610100808354040283529160200191610af7565b820191906000526020600020905b815481529060010190602001808311610ada57829003601f168201915b50505050509050919050565b6060600260008373ffffffffffffffffffffffffffffffffffffffff1673ffffffffffffffffffffffffffffffffffffffff16815260200190815260200160002060040160009054906101000a900460ff1680610bac5750600360008373ffffffffffffffffffffffffffffffffffffffff1673ffffffffffffffffffffffffffffffffffffffff16815260200190815260200160002060030160009054906101000a900460ff165b610bb557600080fd5b600260008373ffffffffffffffffffffffffffffffffffffffff1673ffffffffffffffffffffffffffffffffffffffff16815260200190815260200160002060040160009054906101000a900460ff1615610cdc57600260008373ffffffffffffffffffffffffffffffffffffffff1673ffffffffffffffffffffffffffffffffffffffff1681526020019081526020016000206002018054610c5790612441565b80601f0160208091040260200160405190810160405280929190818152602001828054610c8390612441565b8015610cd05780601f10610ca557610100808354040283529160200191610cd0565b820191906000526020600020905b815481529060010190602001808311610cb357829003601f168201915b50505050509050610daa565b600360008373ffffffffffffffffffffffffffffffffffffffff1673ffffffffffffffffffffffffffffffffffffffff1681526020019081526020016000206002018054610d2990612441565b80601f0160208091040260200160405190810160405280929190818152602001828054610d5590612441565b8015610da25780601f10610d7757610100808354040283529160200191610da2565b820191906000526020600020905b815481529060010190602001808311610d8557829003601f168201915b505050505090505b919050565b6060600360008373ffffffffffffffffffffffffffffffffffffffff1673ffffffffffffffffffffffffffffffffffffffff16815260200190815260200160002060030160009054906101000a900460ff16610e0a57600080fd5b600360008373ffffffffffffffffffffffffffffffffffffffff1673ffffffffffffffffffffffffffffffffffffffff1681526020019081526020016000206001018054610e5790612441565b80601f0160208091040260200160405190810160405280929190818152602001828054610e8390612441565b8015610ed05780601f10610ea557610100808354040283529160200191610ed0565b820191906000526020600020905b815481529060010190602001808311610eb357829003601f168201915b50505050509050919050565b60008060006041845114610eef57600080fd5b6020840151915060408401519050606084015160001a92509193909250565b6060600360008373ffffffffffffffffffffffffffffffffffffffff1673ffffffffffffffffffffffffffffffffffffffff16815260200190815260200160002060030160009054906101000a900460ff16610f6957600080fd5b600360008373ffffffffffffffffffffffffffffffffffffffff1673ffffffffffffffffffffffffffffffffffffffff1681526020019081526020016000206000018054610fb690612441565b80601f0160208091040260200160405190810160405280929190818152602001828054610fe290612441565b801561102f5780601f106110045761010080835404028352916020019161102f565b820191906000526020600020905b81548152906001019060200180831161101257829003601f168201915b50505050509050919050565b600260008373ffffffffffffffffffffffffffffffffffffffff1673ffffffffffffffffffffffffffffffffffffffff16815260200190815260200160002060040160009054906101000a900460ff1680156111cf5750600260003373ffffffffffffffffffffffffffffffffffffffff1673ffffffffffffffffffffffffffffffffffffffff16815260200190815260200160002060040160009054906101000a900460ff16806111ce5750600360003373ffffffffffffffffffffffffffffffffffffffff1673ffffffffffffffffffffffffffffffffffffffff16815260200190815260200160002060030160009054906101000a900460ff1680156111cd5750600260008373ffffffffffffffffffffffffffffffffffffffff1673ffffffffffffffffffffffffffffffffffffffff16815260200190815260200160002060030160003373ffffffffffffffffffffffffffffffffffffffff1673ffffffffffffffffffffffffffffffffffffffff16815260200190815260200160002060009054906101000a900460ff165b5b5b6111d857600080fd5b80600560008473ffffffffffffffffffffffffffffffffffffffff1673ffffffffffffffffffffffffffffffffffffffff168152602001908152602001600020600101819055505050565b600360008373ffffffffffffffffffffffffffffffffffffffff1673ffffffffffffffffffffffffffffffffffffffff16815260200190815260200160002060030160009054906101000a900460ff161561127d57600080fd5b83600360008473ffffffffffffffffffffffffffffffffffffffff1673ffffffffffffffffffffffffffffffffffffffff16815260200190815260200160002060000190805190602001906112d3929190611b9f565b5082600360008473ffffffffffffffffffffffffffffffffffffffff1673ffffffffffffffffffffffffffffffffffffffff168152602001908152602001600020600101908051906020019061132a929190611b9f565b5080600360008473ffffffffffffffffffffffffffffffffffffffff1673ffffffffffffffffffffffffffffffffffffffff1681526020019081526020016000206002019080519060200190611381929190611c25565b506001600360008473ffffffffffffffffffffffffffffffffffffffff1673ffffffffffffffffffffffffffffffffffffffff16815260200190815260200160002060030160006101000a81548160ff021916908315150217905550600160008154809291906113f0906124a2565b91905055508173ffffffffffffffffffffffffffffffffffffffff167f45778061a3b985ce9b5690e887df346e0b2d3e0f63747f04ba01208151de38b985858460405161143f939291906124eb565b60405180910390a250505050565b6000600360008473ffffffffffffffffffffffffffffffffffffffff1673ffffffffffffffffffffffffffffffffffffffff16815260200190815260200160002060030160009054906101000a900460ff1680156114f75750600260008373ffffffffffffffffffffffffffffffffffffffff1673ffffffffffffffffffffffffffffffffffffffff16815260200190815260200160002060040160009054906101000a900460ff165b61150057600080fd5b600260008373ffffffffffffffffffffffffffffffffffffffff1673ffffffffffffffffffffffffffffffffffffffff16815260200190815260200160002060030160008473ffffffffffffffffffffffffffffffffffffffff1673ffffffffffffffffffffffffffffffffffffffff16815260200190815260200160002060009054906101000a900460ff16905092915050565b60008054905090565b6000818051906020012060001c9050919050565b6060600260008373ffffffffffffffffffffffffffffffffffffffff1673ffffffffffffffffffffffffffffffffffffffff16815260200190815260200160002060040160009054906101000a900460ff1661160d57600080fd5b600260008373ffffffffffffffffffffffffffffffffffffffff1673ffffffffffffffffffffffffffffffffffffffff168152602001908152602001600020600101805461165a90612441565b80601f016020809104026020016040519081016040528092919081815260200182805461168690612441565b80156116d35780601f106116a8576101008083540402835291602001916116d3565b820191906000526020600020905b8154815290600101906020018083116116b657829003601f168201915b50505050509050919050565b6000600260008373ffffffffffffffffffffffffffffffffffffffff1673ffffffffffffffffffffffffffffffffffffffff16815260200190815260200160002060040160009054906101000a900460ff1661173a57600080fd5b600560008373ffffffffffffffffffffffffffffffffffffffff1673ffffffffffffffffffffffffffffffffffffffff168152602001908152602001600020600101549050919050565b600360003373ffffffffffffffffffffffffffffffffffffffff1673ffffffffffffffffffffffffffffffffffffffff16815260200190815260200160002060030160009054906101000a900460ff16801561182d5750600260008373ffffffffffffffffffffffffffffffffffffffff1673ffffffffffffffffffffffffffffffffffffffff16815260200190815260200160002060040160009054906101000a900460ff16155b61183657600080fd5b83600260008473ffffffffffffffffffffffffffffffffffffffff1673ffffffffffffffffffffffffffffffffffffffff168152602001908152602001600020600001908051906020019061188c929190611b9f565b5082600260008473ffffffffffffffffffffffffffffffffffffffff1673ffffffffffffffffffffffffffffffffffffffff16815260200190815260200160002060010190805190602001906118e3929190611b9f565b5080600260008473ffffffffffffffffffffffffffffffffffffffff1673ffffffffffffffffffffffffffffffffffffffff168152602001908152602001600020600201908051906020019061193a929190611c25565b506001600260008473ffffffffffffffffffffffffffffffffffffffff1673ffffffffffffffffffffffffffffffffffffffff16815260200190815260200160002060030160003373ffffffffffffffffffffffffffffffffffffffff1673ffffffffffffffffffffffffffffffffffffffff16815260200190815260200160002060006101000a81548160ff0219169083151502179055506001600260008473ffffffffffffffffffffffffffffffffffffffff1673ffffffffffffffffffffffffffffffffffffffff16815260200190815260200160002060040160006101000a81548160ff02191690831515021790555033600560008473ffffffffffffffffffffffffffffffffffffffff1673ffffffffffffffffffffffffffffffffffffffff16815260200190815260200160002060000160006101000a81548173ffffffffffffffffffffffffffffffffffffffff021916908373ffffffffffffffffffffffffffffffffffffffff1602179055507fe3b0c44298fc1c149afbf4c8996fb92427ae41e4649b934ca495991b7852b85560001b600560008473ffffffffffffffffffffffffffffffffffffffff1673ffffffffffffffffffffffffffffffffffffffff16815260200190815260200160002060010181905550600080815480929190611b2b906124a2565b91905055503373ffffffffffffffffffffffffffffffffffffffff168273ffffffffffffffffffffffffffffffffffffffff167f4b644294b0ac376e7128442f074c46fbf8a4d0db37a442f458b4853824043b25868685604051611b91939291906124eb565b60405180910390a350505050565b828054611bab90612441565b90600052602060002090601f016020900481019282611bcd5760008555611c14565b82601f10611be657805160ff1916838001178555611c14565b82800160010185558215611c14579182015b82811115611c13578251825591602001919060010190611bf8565b5b509050611c219190611cab565b5090565b828054611c3190612441565b90600052602060002090601f016020900481019282611c535760008555611c9a565b82601f10611c6c57805160ff1916838001178555611c9a565b82800160010185558215611c9a579182015b82811115611c99578251825591602001919060010190611c7e565b5b509050611ca79190611cab565b5090565b5b80821115611cc4576000816000905550600101611cac565b5090565b6000604051905090565b600080fd5b600080fd5b600073ffffffffffffffffffffffffffffffffffffffff82169050919050565b6000611d0782611cdc565b9050919050565b611d1781611cfc565b8114611d2257600080fd5b50565b600081359050611d3481611d0e565b92915050565b600060208284031215611d5057611d4f611cd2565b5b6000611d5e84828501611d25565b91505092915050565b60008115159050919050565b611d7c81611d67565b82525050565b6000602082019050611d976000830184611d73565b92915050565b6000819050919050565b611db081611d9d565b8114611dbb57600080fd5b50565b600081359050611dcd81611da7565b92915050565b600060ff82169050919050565b611de981611dd3565b8114611df457600080fd5b50565b600081359050611e0681611de0565b92915050565b60008060008060808587031215611e2657611e25611cd2565b5b6000611e3487828801611dbe565b9450506020611e4587828801611df7565b9350506040611e5687828801611dbe565b9250506060611e6787828801611dbe565b91505092959194509250565b611e7c81611cfc565b82525050565b6000602082019050611e976000830184611e73565b92915050565b6000819050919050565b611eb081611e9d565b82525050565b6000602082019050611ecb6000830184611ea7565b92915050565b600081519050919050565b600082825260208201905092915050565b60005b83811015611f0b578082015181840152602081019050611ef0565b83811115611f1a576000848401525b50505050565b6000601f19601f8301169050919050565b6000611f3c82611ed1565b611f468185611edc565b9350611f56818560208601611eed565b611f5f81611f20565b840191505092915050565b60006020820190508181036000830152611f848184611f31565b905092915050565b600081519050919050565b600082825260208201905092915050565b6000611fb382611f8c565b611fbd8185611f97565b9350611fcd818560208601611eed565b611fd681611f20565b840191505092915050565b60006020820190508181036000830152611ffb8184611fa8565b905092915050565b600080fd5b600080fd5b7f4e487b7100000000000000000000000000000000000000000000000000000000600052604160045260246000fd5b61204582611f20565b810181811067ffffffffffffffff821117156120645761206361200d565b5b80604052505050565b6000612077611cc8565b9050612083828261203c565b919050565b600067ffffffffffffffff8211156120a3576120a261200d565b5b6120ac82611f20565b9050602081019050919050565b82818337600083830152505050565b60006120db6120d684612088565b61206d565b9050828152602081018484840111156120f7576120f6612008565b5b6121028482856120b9565b509392505050565b600082601f83011261211f5761211e612003565b5b813561212f8482602086016120c8565b91505092915050565b60006020828403121561214e5761214d611cd2565b5b600082013567ffffffffffffffff81111561216c5761216b611cd7565b5b6121788482850161210a565b91505092915050565b61218a81611dd3565b82525050565b61219981611d9d565b82525050565b60006060820190506121b46000830186612181565b6121c16020830185612190565b6121ce6040830184612190565b949350505050565b600080604083850312156121ed576121ec611cd2565b5b60006121fb85828601611d25565b925050602061220c85828601611dbe565b9150509250929050565b600067ffffffffffffffff8211156122315761223061200d565b5b61223a82611f20565b9050602081019050919050565b600061225a61225584612216565b61206d565b90508281526020810184848401111561227657612275612008565b5b6122818482856120b9565b509392505050565b600082601f83011261229e5761229d612003565b5b81356122ae848260208601612247565b91505092915050565b600080600080608085870312156122d1576122d0611cd2565b5b600085013567ffffffffffffffff8111156122ef576122ee611cd7565b5b6122fb87828801612289565b945050602085013567ffffffffffffffff81111561231c5761231b611cd7565b5b61232887828801612289565b935050604061233987828801611d25565b925050606085013567ffffffffffffffff81111561235a57612359611cd7565b5b6123668782880161210a565b91505092959194509250565b6000806040838503121561238957612388611cd2565b5b600061239785828601611d25565b92505060206123a885828601611d25565b9150509250929050565b60006020820190506123c76000830184612190565b92915050565b60006080820190506123e26000830187612190565b6123ef6020830186612181565b6123fc6040830185612190565b6124096060830184612190565b95945050505050565b7f4e487b7100000000000000000000000000000000000000000000000000000000600052602260045260246000fd5b6000600282049050600182168061245957607f821691505b6020821081141561246d5761246c612412565b5b50919050565b7f4e487b7100000000000000000000000000000000000000000000000000000000600052601160045260246000fd5b60006124ad82611e9d565b91507fffffffffffffffffffffffffffffffffffffffffffffffffffffffffffffffff8214156124e0576124df612473565b5b600182019050919050565b600060608201905081810360008301526125058186611f31565b905081810360208301526125198185611f31565b9050818103604083015261252d8184611fa8565b905094935050505056fea26469706673582212200e9ecff643f14896fb4a4e2f076469175024fbaca7ca3e3f99c4060935f6da1564736f6c634300080b0033",
  "immutableReferences": {},
  "source": "pragma solidity >=0.7.0 <0.9.0;\r\n\r\ncontract EHR {\r\n\r\n    uint patientCount = 0;\r\n    uint doctorCount = 0;\r\n\r\n    struct Patient{\r\n        string firstName;\r\n        string lastName;\r\n        /// public key of patient\r\n        bytes pubKey;\r\n        /// doctors authorized to read/write this patient's EHR\r\n        mapping (address => bool) authorized;\r\n        bool valid;\r\n    }\r\n\r\n    struct Doctor{\r\n        string firstName;\r\n        string lastName;\r\n        /// public key of doctor\r\n        bytes pubKey;\r\n        bool valid;\r\n    }\r\n\r\n    struct MedicalRecord{\r\n        /// address of the doctor who created this record\r\n        address doctorAddress;\r\n        /// hash of latest file version\r\n        bytes32 hash;\r\n        bool valid;\r\n    }\r\n    \r\n    /// associate patient's wallet address with Patient struct\r\n    mapping (address => Patient) patients;\r\n    /// associate doctot's wallet address with Doctor struct\r\n    mapping (address => Doctor) doctors;\r\n    /// associate patient's wallet address with doctor address\r\n    mapping (address => address) patientProviders;\r\n    /// associate patient's wallet address with MedicalRecord\r\n    mapping (address => MedicalRecord) records;\r\n\r\n    event PatientCreation(string _patientFirstName, string _patientLastName, address indexed _patientAddress, bytes _patientPublicKey, address indexed _doctor);\r\n    event DoctorCreation(string _doctorFirstName, string _doctorLastName, address indexed _doctorAddress, bytes _doctorPublicKey);\r\n    event DoctorAuth(address indexed _patient, address indexed _doctor, bool isAuthorized);\r\n    event MedicalRecordView(address indexed _patient, address indexed _viewer);\r\n    event MedicalRecordUpdate(address indexed _patient, address indexed _updator, bytes32 fileHash);\r\n\r\n\r\n    function createPatient(\r\n        string memory _firstName, \r\n        string memory _lastName, \r\n        address _patientAddress, \r\n        bytes memory _patientPublicKey\r\n    ) \r\n        public \r\n    {\r\n        /// only allow doctors to create patients, and patient can't already exist\r\n        require(doctors[msg.sender].valid && !patients[_patientAddress].valid);\r\n        patients[_patientAddress].firstName = _firstName;\r\n        patients[_patientAddress].lastName = _lastName;\r\n        patients[_patientAddress].pubKey = _patientPublicKey;\r\n        patients[_patientAddress].authorized[msg.sender] = true;\r\n        patients[_patientAddress].valid = true;\r\n        records[_patientAddress].doctorAddress = msg.sender;\r\n        /// hash of null data\r\n        records[_patientAddress].hash = 0xe3b0c44298fc1c149afbf4c8996fb92427ae41e4649b934ca495991b7852b855;\r\n        patientCount++;\r\n        emit PatientCreation(_firstName, _lastName, _patientAddress, _patientPublicKey, msg.sender);\r\n    }\r\n\r\n    function createDoctor(\r\n        string memory _firstName, \r\n        string memory _lastName, \r\n        address _doctorAddress, \r\n        bytes memory _doctorPublicKey\r\n    ) \r\n        public\r\n    {\r\n        /// only admin can create doctor, and doctor must not already exist\r\n        require(!doctors[_doctorAddress].valid);\r\n        doctors[_doctorAddress].firstName = _firstName;\r\n        doctors[_doctorAddress].lastName = _lastName;\r\n        doctors[_doctorAddress].pubKey = _doctorPublicKey;\r\n        doctors[_doctorAddress].valid = true;\r\n        doctorCount++;\r\n        emit DoctorCreation(_firstName, _lastName, _doctorAddress, _doctorPublicKey);\r\n    }\r\n\r\n    function authorizeDoctor(address _doctorAddress) public\r\n    {\r\n        /// doctor should exist and patient should exist and doctor shouldn't already have authorization\r\n        require(doctors[_doctorAddress].valid \r\n                && patients[msg.sender].valid\r\n                && !patients[msg.sender].authorized[_doctorAddress]);\r\n        patients[msg.sender].authorized[_doctorAddress] = true;\r\n        emit DoctorAuth(msg.sender, _doctorAddress, true);\r\n    }\r\n\r\n    function deauthorizeDoctor(address _doctorAddress) public\r\n    {\r\n        /// doctor should exist and patient should exist and doctor should have authorization\r\n        require(doctors[_doctorAddress].valid \r\n                && patients[msg.sender].valid \r\n                && patients[msg.sender].authorized[_doctorAddress]);\r\n        patients[msg.sender].authorized[_doctorAddress] = false;\r\n        emit DoctorAuth(msg.sender, _doctorAddress, false);\r\n    }\r\n\r\n    function updateRecordHash(address _patientAddress, bytes32 _hash) public {\r\n        /// patient should exist and either (sender is patient) or (sender is doctor and doctor is authorized)\r\n        require(patients[_patientAddress].valid && (patients[msg.sender].valid || (doctors[msg.sender].valid && patients[_patientAddress].authorized[msg.sender])));\r\n        records[_patientAddress].hash = _hash;\r\n    }\r\n\r\n    function patientExists(address _patientAddress) public view returns (bool) {\r\n        return patients[_patientAddress].valid;\r\n    }\r\n\r\n    function doctorExists(address _doctorAddress) public view returns (bool) {\r\n        return doctors[_doctorAddress].valid;\r\n    }\r\n\r\n    function doctorAuthorized(address _doctorAddress, address _patientAddress) public view returns (bool) {\r\n        require(doctors[_doctorAddress].valid && patients[_patientAddress].valid);\r\n        return patients[_patientAddress].authorized[_doctorAddress];\r\n    }\r\n\r\n    function getAddress(bytes memory pubkey) public pure returns (address) {\r\n        return address(uint160(uint256(keccak256(pubkey))));\r\n    }\r\n\r\n    function getEHRHash(address _patientAddress) public view returns (bytes32) {\r\n        require(patients[_patientAddress].valid);\r\n        return records[_patientAddress].hash;\r\n    }\r\n\r\n    function getPatientFirstName(address _patientAddress) public view returns (string memory) {\r\n        require(patients[_patientAddress].valid);\r\n        return patients[_patientAddress].firstName;\r\n    }\r\n\r\n    function getPatientLastName(address _patientAddress) public view returns (string memory) {\r\n        require(patients[_patientAddress].valid);\r\n        return patients[_patientAddress].lastName;\r\n    }\r\n\r\n    function getDoctorFirstName(address _doctorAddress) public view returns (string memory) {\r\n        require(doctors[_doctorAddress].valid);\r\n        return doctors[_doctorAddress].firstName;\r\n    }\r\n\r\n    function getDoctorLastName(address _doctorAddress) public view returns (string memory) {\r\n        require(doctors[_doctorAddress].valid);\r\n        return doctors[_doctorAddress].lastName;\r\n    }\r\n\r\n    function getPublicKey(address _address) public view returns (bytes memory) {\r\n        require(patients[_address].valid || doctors[_address].valid);\r\n        if(patients[_address].valid) {\r\n            return patients[_address].pubKey;\r\n        } else {\r\n            return doctors[_address].pubKey;\r\n        }\r\n    }\r\n\r\n    function getDoctorCount() public view returns (uint) {\r\n        return doctorCount;\r\n    }\r\n\r\n    function getPatientCount() public view returns (uint) {\r\n        return patientCount;\r\n    }\r\n\r\n    //input a signature and determine the v, r and s values\r\n    function splitSignature(bytes memory signature) public pure\r\n        returns (uint8 v, bytes32 r, bytes32 s)\r\n    {\r\n        require(signature.length == 65);\r\n        assembly {\r\n            // first 32 bytes, after the length prefix.\r\n            r := mload(add(signature, 32))\r\n            // second 32 bytes.\r\n            s := mload(add(signature, 64))\r\n            // final byte (first byte of the next 32 bytes).\r\n            v := byte(0, mload(add(signature, 96)))\r\n        }\r\n        return (v, r, s);\r\n    }\r\n\r\n    //input a message hash, v, r and s values and generate the public key\r\n    function recoverPublicAddress (bytes32 messagehash, uint8 v, bytes32 r, bytes32 s) public pure\r\n    returns (address sender) {\r\n        return ecrecover(messagehash, v, r, s);\r\n  }\r\n\r\n}",
  "sourcePath": "D:\\CWRU\\Spring 2022\\Software Engineering\\mednote\\contracts\\EHR.sol",
  "compiler": {
    "name": "solc",
    "version": "0.8.11+commit.d7f03943.Emscripten.clang"
  },
  "schemaVersion": "3.4.4",
  "updatedAt": "2022-04-15T04:12:50.658Z",
  "networkType": "ethereum",
  "devdoc": {
    "kind": "dev",
    "methods": {},
    "version": 1
  },
  "userdoc": {
    "kind": "user",
    "methods": {},
    "version": 1
  }
}