{
  "abi": [
    {
      "anonymous": false,
      "inputs": [
        {
          "indexed": true,
          "internalType": "address",
          "name": "_patient",
          "type": "address"
        },
        {
          "indexed": true,
          "internalType": "address",
          "name": "_doctor",
          "type": "address"
        },
        {
          "indexed": false,
          "internalType": "bool",
          "name": "isAuthorized",
          "type": "bool"
        }
      ],
      "name": "DoctorAuth",
      "type": "event"
    },
    {
      "anonymous": false,
      "inputs": [
        {
          "indexed": true,
          "internalType": "address",
          "name": "_doctor",
          "type": "address"
        }
      ],
      "name": "DoctorCreation",
      "type": "event"
    },
    {
      "anonymous": false,
      "inputs": [
        {
          "indexed": true,
          "internalType": "address",
          "name": "_patient",
          "type": "address"
        },
        {
          "indexed": true,
          "internalType": "address",
          "name": "_updator",
          "type": "address"
        },
        {
          "indexed": false,
          "internalType": "bytes32",
          "name": "fileHash",
          "type": "bytes32"
        }
      ],
      "name": "MedicalRecordUpdate",
      "type": "event"
    },
    {
      "anonymous": false,
      "inputs": [
        {
          "indexed": true,
          "internalType": "address",
          "name": "_patient",
          "type": "address"
        },
        {
          "indexed": true,
          "internalType": "address",
          "name": "_viewer",
          "type": "address"
        }
      ],
      "name": "MedicalRecordView",
      "type": "event"
    },
    {
      "anonymous": false,
      "inputs": [
        {
          "indexed": true,
          "internalType": "address",
          "name": "_patient",
          "type": "address"
        },
        {
          "indexed": true,
          "internalType": "address",
          "name": "_doctor",
          "type": "address"
        }
      ],
      "name": "PatientCreation",
      "type": "event"
    },
    {
      "inputs": [
        {
          "internalType": "address",
          "name": "_doctorAddress",
          "type": "address"
        }
      ],
      "name": "authorizeDoctor",
      "outputs": [],
      "stateMutability": "nonpayable",
      "type": "function"
    },
    {
      "inputs": [
        {
          "internalType": "string",
          "name": "_firstName",
          "type": "string"
        },
        {
          "internalType": "string",
          "name": "_lastName",
          "type": "string"
        },
        {
          "internalType": "address",
          "name": "_doctorAddress",
          "type": "address"
        },
        {
          "internalType": "bytes",
          "name": "_doctorPublicKey",
          "type": "bytes"
        }
      ],
      "name": "createDoctor",
      "outputs": [],
      "stateMutability": "nonpayable",
      "type": "function"
    },
    {
      "inputs": [
        {
          "internalType": "string",
          "name": "_firstName",
          "type": "string"
        },
        {
          "internalType": "string",
          "name": "_lastName",
          "type": "string"
        },
        {
          "internalType": "address",
          "name": "_patientAddress",
          "type": "address"
        },
        {
          "internalType": "bytes",
          "name": "_patientPublicKey",
          "type": "bytes"
        }
      ],
      "name": "createPatient",
      "outputs": [],
      "stateMutability": "nonpayable",
      "type": "function"
    },
    {
      "inputs": [
        {
          "internalType": "address",
          "name": "_doctorAddress",
          "type": "address"
        }
      ],
      "name": "deauthorizeDoctor",
      "outputs": [],
      "stateMutability": "nonpayable",
      "type": "function"
    },
    {
      "inputs": [
        {
          "internalType": "address",
          "name": "_doctorAddress",
          "type": "address"
        },
        {
          "internalType": "address",
          "name": "_patientAddress",
          "type": "address"
        }
      ],
      "name": "doctorAuthorized",
      "outputs": [
        {
          "internalType": "bool",
          "name": "",
          "type": "bool"
        }
      ],
      "stateMutability": "view",
      "type": "function"
    },
    {
      "inputs": [
        {
          "internalType": "address",
          "name": "_doctorAddress",
          "type": "address"
        }
      ],
      "name": "doctorExists",
      "outputs": [
        {
          "internalType": "bool",
          "name": "",
          "type": "bool"
        }
      ],
      "stateMutability": "view",
      "type": "function"
    },
    {
      "inputs": [
        {
          "internalType": "bytes",
          "name": "pubkey",
          "type": "bytes"
        }
      ],
      "name": "getAddress",
      "outputs": [
        {
          "internalType": "address",
          "name": "",
          "type": "address"
        }
      ],
      "stateMutability": "pure",
      "type": "function"
    },
    {
      "inputs": [
        {
          "internalType": "address",
          "name": "_patientAddress",
          "type": "address"
        }
      ],
      "name": "patientExists",
      "outputs": [
        {
          "internalType": "bool",
          "name": "",
          "type": "bool"
        }
      ],
      "stateMutability": "view",
      "type": "function"
    },
    {
      "inputs": [
        {
          "internalType": "bytes32",
          "name": "messagehash",
          "type": "bytes32"
        },
        {
          "internalType": "uint8",
          "name": "v",
          "type": "uint8"
        },
        {
          "internalType": "bytes32",
          "name": "r",
          "type": "bytes32"
        },
        {
          "internalType": "bytes32",
          "name": "s",
          "type": "bytes32"
        }
      ],
      "name": "recoverPublicAddress",
      "outputs": [
        {
          "internalType": "address",
          "name": "sender",
          "type": "address"
        }
      ],
      "stateMutability": "pure",
      "type": "function"
    },
    {
      "inputs": [
        {
          "internalType": "bytes",
          "name": "signature",
          "type": "bytes"
        }
      ],
      "name": "splitSignature",
      "outputs": [
        {
          "internalType": "uint8",
          "name": "v",
          "type": "uint8"
        },
        {
          "internalType": "bytes32",
          "name": "r",
          "type": "bytes32"
        },
        {
          "internalType": "bytes32",
          "name": "s",
          "type": "bytes32"
        }
      ],
      "stateMutability": "pure",
      "type": "function"
    },
    {
      "inputs": [
        {
          "internalType": "address",
          "name": "_patientAddress",
          "type": "address"
        },
        {
          "internalType": "bytes32",
          "name": "_hash",
          "type": "bytes32"
        }
      ],
      "name": "updateRecordHash",
      "outputs": [],
      "stateMutability": "nonpayable",
      "type": "function"
    }
  ],
  "bytecode": "608060405260008055600060015534801561001957600080fd5b50610bf2806100296000396000f3fe608060405234801561001057600080fd5b50600436106100a95760003560e01c8063a7bb580311610071578063a7bb580314610175578063afd9a94c146101a7578063b163b365146101ba578063b74be800146101cd578063c47cf5de146101e0578063f4863bed146101f957600080fd5b80632ad230a9146100ae57806351710f03146100f357806352e9e8a01461012257806358c9202c1461014d5780635ab361ef14610162575b600080fd5b6100de6100bc366004610920565b6001600160a01b03166000908152600360208190526040909120015460ff1690565b60405190151581526020015b60405180910390f35b6100de610101366004610920565b6001600160a01b031660009081526002602052604090206004015460ff1690565b610135610130366004610942565b61020c565b6040516001600160a01b0390911681526020016100ea565b61016061015b366004610920565b610274565b005b610160610170366004610920565b61035d565b610188610183366004610a28565b610436565b6040805160ff90941684526020840192909252908201526060016100ea565b6101606101b5366004610a65565b610465565b6101606101c8366004610a8f565b610518565b6100de6101db366004610b28565b610640565b6101356101ee366004610a28565b805160209091012090565b610160610207366004610a8f565b6106c3565b6040805160008082526020820180845287905260ff861692820192909252606081018490526080810183905260019060a0016020604051602081039080840390855afa158015610260573d6000803e3d6000fd5b5050604051601f1901519695505050505050565b6001600160a01b0381166000908152600360208190526040909120015460ff1680156102b257503360009081526002602052604090206004015460ff165b80156102e557503360009081526002602090815260408083206001600160a01b038516845260030190915290205460ff16155b6102ee57600080fd5b3360008181526002602090815260408083206001600160a01b0386168085526003909101835292819020805460ff1916600190811790915590519081529192917f58efeaa91070e02fbcbc866786a01ab2d142a9df696ebcd9fd1515e0954377fd91015b60405180910390a350565b6001600160a01b0381166000908152600360208190526040909120015460ff16801561039b57503360009081526002602052604090206004015460ff165b80156103cd57503360009081526002602090815260408083206001600160a01b038516845260030190915290205460ff165b6103d657600080fd5b3360008181526002602090815260408083206001600160a01b03861680855260039091018352818420805460ff19169055905192835292917f58efeaa91070e02fbcbc866786a01ab2d142a9df696ebcd9fd1515e0954377fd9101610352565b6000806000835160411461044957600080fd5b5050506020810151604082015160609092015160001a92909190565b6001600160a01b03821660009081526002602052604090206004015460ff1680156104f057503360009081526002602052604090206004015460ff16806104f05750336000908152600360208190526040909120015460ff1680156104f057506001600160a01b038216600090815260026020908152604080832033845260030190915290205460ff165b6104f957600080fd5b6001600160a01b03909116600090815260056020526040902060010155565b6001600160a01b0382166000908152600360208190526040909120015460ff161561054257600080fd5b6001600160a01b0382166000908152600360209081526040909120855161056b9287019061086b565b506001600160a01b0382166000908152600360209081526040909120845161059b9260019092019186019061086b565b506001600160a01b038216600090815260036020908152604090912082516105cb9260029092019184019061086b565b506001600160a01b0382166000908152600360208190526040822001805460ff1916600190811790915580549161060183610b5b565b90915550506040516001600160a01b038316907f4cd17b5d25f6ea7efaa933b18d886d9ebcb6b66e8a67f82a70a472bf1fc2004d90600090a250505050565b6001600160a01b03821660009081526003602081905260408220015460ff16801561068657506001600160a01b03821660009081526002602052604090206004015460ff165b61068f57600080fd5b506001600160a01b038082166000908152600260209081526040808320938616835260039093019052205460ff1692915050565b336000908152600360208190526040909120015460ff16801561070257506001600160a01b03821660009081526002602052604090206004015460ff16155b61070b57600080fd5b6001600160a01b038216600090815260026020908152604090912085516107349287019061086b565b506001600160a01b038216600090815260026020908152604090912084516107649260019092019186019061086b565b506001600160a01b038216600090815260026020818152604090922083516107949391909201919084019061086b565b506001600160a01b0382166000818152600260209081526040808320338085526003820184528285208054600160ff1991821681179092559686526004909201805490961682179095556005909252822080546001600160a01b03191690931783557fe3b0c44298fc1c149afbf4c8996fb92427ae41e4649b934ca495991b7852b8559201919091558054908061082a83610b5b565b909155505060405133906001600160a01b038416907f98d045482cdb3a3eb48eaffed7579d8339191329ff0088239dd97ac546d59cba90600090a350505050565b82805461087790610b82565b90600052602060002090601f01602090048101928261089957600085556108df565b82601f106108b257805160ff19168380011785556108df565b828001600101855582156108df579182015b828111156108df5782518255916020019190600101906108c4565b506108eb9291506108ef565b5090565b5b808211156108eb57600081556001016108f0565b80356001600160a01b038116811461091b57600080fd5b919050565b60006020828403121561093257600080fd5b61093b82610904565b9392505050565b6000806000806080858703121561095857600080fd5b84359350602085013560ff8116811461097057600080fd5b93969395505050506040820135916060013590565b634e487b7160e01b600052604160045260246000fd5b600082601f8301126109ac57600080fd5b813567ffffffffffffffff808211156109c7576109c7610985565b604051601f8301601f19908116603f011681019082821181831017156109ef576109ef610985565b81604052838152866020858801011115610a0857600080fd5b836020870160208301376000602085830101528094505050505092915050565b600060208284031215610a3a57600080fd5b813567ffffffffffffffff811115610a5157600080fd5b610a5d8482850161099b565b949350505050565b60008060408385031215610a7857600080fd5b610a8183610904565b946020939093013593505050565b60008060008060808587031215610aa557600080fd5b843567ffffffffffffffff80821115610abd57600080fd5b610ac98883890161099b565b95506020870135915080821115610adf57600080fd5b610aeb8883890161099b565b9450610af960408801610904565b93506060870135915080821115610b0f57600080fd5b50610b1c8782880161099b565b91505092959194509250565b60008060408385031215610b3b57600080fd5b610b4483610904565b9150610b5260208401610904565b90509250929050565b600060018201610b7b57634e487b7160e01b600052601160045260246000fd5b5060010190565b600181811c90821680610b9657607f821691505b602082108103610bb657634e487b7160e01b600052602260045260246000fd5b5091905056fea2646970667358221220f8dfe476fed2102c28495163a11404faba472416a3e7f5488c95d7c2394672bb64736f6c634300080d0033",
  "bytecodeSha1": "df0d532bb9f7617d5515a3486632f449c06816f3",
  "compiler": {
    "evm_version": "istanbul",
    "optimizer": {
      "enabled": true,
      "runs": 200
    },
    "version": "0.8.13+commit.abaa5c0e"
  },
  "contractName": "EHR",
  "language": "Solidity",
  "natspec": {
    "kind": "dev",
    "methods": {},
    "version": 1
  },
  "opcodes": "PUSH1 0x80 PUSH1 0x40 MSTORE CALLVALUE DUP1 ISZERO PUSH2 0x10 JUMPI PUSH1 0x0 DUP1 REVERT JUMPDEST POP PUSH1 0x4 CALLDATASIZE LT PUSH2 0xA9 JUMPI PUSH1 0x0 CALLDATALOAD PUSH1 0xE0 SHR DUP1 PUSH4 0xA7BB5803 GT PUSH2 0x71 JUMPI DUP1 PUSH4 0xA7BB5803 EQ PUSH2 0x175 JUMPI DUP1 PUSH4 0xAFD9A94C EQ PUSH2 0x1A7 JUMPI DUP1 PUSH4 0xB163B365 EQ PUSH2 0x1BA JUMPI DUP1 PUSH4 0xB74BE800 EQ PUSH2 0x1CD JUMPI DUP1 PUSH4 0xC47CF5DE EQ PUSH2 0x1E0 JUMPI DUP1 PUSH4 0xF4863BED EQ PUSH2 0x1F9 JUMPI PUSH1 0x0 DUP1 REVERT JUMPDEST DUP1 PUSH4 0x2AD230A9 EQ PUSH2 0xAE JUMPI DUP1 PUSH4 0x51710F03 EQ PUSH2 0xF3 JUMPI DUP1 PUSH4 0x52E9E8A0 EQ PUSH2 0x122 JUMPI DUP1 PUSH4 0x58C9202C EQ PUSH2 0x14D JUMPI DUP1 PUSH4 0x5AB361EF EQ PUSH2 0x162 JUMPI JUMPDEST PUSH1 0x0 DUP1 REVERT JUMPDEST PUSH2 0xDE PUSH2 0xBC CALLDATASIZE PUSH1 0x4 PUSH2 0x920 JUMP JUMPDEST PUSH1 0x1 PUSH1 0x1 PUSH1 0xA0 SHL SUB AND PUSH1 0x0 SWAP1 DUP2 MSTORE PUSH1 0x3 PUSH1 0x20 DUP2 SWAP1 MSTORE PUSH1 0x40 SWAP1 SWAP2 KECCAK256 ADD SLOAD PUSH1 0xFF AND SWAP1 JUMP JUMPDEST PUSH1 0x40 MLOAD SWAP1 ISZERO ISZERO DUP2 MSTORE PUSH1 0x20 ADD JUMPDEST PUSH1 0x40 MLOAD DUP1 SWAP2 SUB SWAP1 RETURN JUMPDEST PUSH2 0xDE PUSH2 0x101 CALLDATASIZE PUSH1 0x4 PUSH2 0x920 JUMP JUMPDEST PUSH1 0x1 PUSH1 0x1 PUSH1 0xA0 SHL SUB AND PUSH1 0x0 SWAP1 DUP2 MSTORE PUSH1 0x2 PUSH1 0x20 MSTORE PUSH1 0x40 SWAP1 KECCAK256 PUSH1 0x4 ADD SLOAD PUSH1 0xFF AND SWAP1 JUMP JUMPDEST PUSH2 0x135 PUSH2 0x130 CALLDATASIZE PUSH1 0x4 PUSH2 0x942 JUMP JUMPDEST PUSH2 0x20C JUMP JUMPDEST PUSH1 0x40 MLOAD PUSH1 0x1 PUSH1 0x1 PUSH1 0xA0 SHL SUB SWAP1 SWAP2 AND DUP2 MSTORE PUSH1 0x20 ADD PUSH2 0xEA JUMP JUMPDEST PUSH2 0x160 PUSH2 0x15B CALLDATASIZE PUSH1 0x4 PUSH2 0x920 JUMP JUMPDEST PUSH2 0x274 JUMP JUMPDEST STOP JUMPDEST PUSH2 0x160 PUSH2 0x170 CALLDATASIZE PUSH1 0x4 PUSH2 0x920 JUMP JUMPDEST PUSH2 0x35D JUMP JUMPDEST PUSH2 0x188 PUSH2 0x183 CALLDATASIZE PUSH1 0x4 PUSH2 0xA28 JUMP JUMPDEST PUSH2 0x436 JUMP JUMPDEST PUSH1 0x40 DUP1 MLOAD PUSH1 0xFF SWAP1 SWAP5 AND DUP5 MSTORE PUSH1 0x20 DUP5 ADD SWAP3 SWAP1 SWAP3 MSTORE SWAP1 DUP3 ADD MSTORE PUSH1 0x60 ADD PUSH2 0xEA JUMP JUMPDEST PUSH2 0x160 PUSH2 0x1B5 CALLDATASIZE PUSH1 0x4 PUSH2 0xA65 JUMP JUMPDEST PUSH2 0x465 JUMP JUMPDEST PUSH2 0x160 PUSH2 0x1C8 CALLDATASIZE PUSH1 0x4 PUSH2 0xA8F JUMP JUMPDEST PUSH2 0x518 JUMP JUMPDEST PUSH2 0xDE PUSH2 0x1DB CALLDATASIZE PUSH1 0x4 PUSH2 0xB28 JUMP JUMPDEST PUSH2 0x640 JUMP JUMPDEST PUSH2 0x135 PUSH2 0x1EE CALLDATASIZE PUSH1 0x4 PUSH2 0xA28 JUMP JUMPDEST DUP1 MLOAD PUSH1 0x20 SWAP1 SWAP2 ADD KECCAK256 SWAP1 JUMP JUMPDEST PUSH2 0x160 PUSH2 0x207 CALLDATASIZE PUSH1 0x4 PUSH2 0xA8F JUMP JUMPDEST PUSH2 0x6C3 JUMP JUMPDEST PUSH1 0x40 DUP1 MLOAD PUSH1 0x0 DUP1 DUP3 MSTORE PUSH1 0x20 DUP3 ADD DUP1 DUP5 MSTORE DUP8 SWAP1 MSTORE PUSH1 0xFF DUP7 AND SWAP3 DUP3 ADD SWAP3 SWAP1 SWAP3 MSTORE PUSH1 0x60 DUP2 ADD DUP5 SWAP1 MSTORE PUSH1 0x80 DUP2 ADD DUP4 SWAP1 MSTORE PUSH1 0x1 SWAP1 PUSH1 0xA0 ADD PUSH1 0x20 PUSH1 0x40 MLOAD PUSH1 0x20 DUP2 SUB SWAP1 DUP1 DUP5 SUB SWAP1 DUP6 GAS STATICCALL ISZERO DUP1 ISZERO PUSH2 0x260 JUMPI RETURNDATASIZE PUSH1 0x0 DUP1 RETURNDATACOPY RETURNDATASIZE PUSH1 0x0 REVERT JUMPDEST POP POP PUSH1 0x40 MLOAD PUSH1 0x1F NOT ADD MLOAD SWAP7 SWAP6 POP POP POP POP POP POP JUMP JUMPDEST PUSH1 0x1 PUSH1 0x1 PUSH1 0xA0 SHL SUB DUP2 AND PUSH1 0x0 SWAP1 DUP2 MSTORE PUSH1 0x3 PUSH1 0x20 DUP2 SWAP1 MSTORE PUSH1 0x40 SWAP1 SWAP2 KECCAK256 ADD SLOAD PUSH1 0xFF AND DUP1 ISZERO PUSH2 0x2B2 JUMPI POP CALLER PUSH1 0x0 SWAP1 DUP2 MSTORE PUSH1 0x2 PUSH1 0x20 MSTORE PUSH1 0x40 SWAP1 KECCAK256 PUSH1 0x4 ADD SLOAD PUSH1 0xFF AND JUMPDEST DUP1 ISZERO PUSH2 0x2E5 JUMPI POP CALLER PUSH1 0x0 SWAP1 DUP2 MSTORE PUSH1 0x2 PUSH1 0x20 SWAP1 DUP2 MSTORE PUSH1 0x40 DUP1 DUP4 KECCAK256 PUSH1 0x1 PUSH1 0x1 PUSH1 0xA0 SHL SUB DUP6 AND DUP5 MSTORE PUSH1 0x3 ADD SWAP1 SWAP2 MSTORE SWAP1 KECCAK256 SLOAD PUSH1 0xFF AND ISZERO JUMPDEST PUSH2 0x2EE JUMPI PUSH1 0x0 DUP1 REVERT JUMPDEST CALLER PUSH1 0x0 DUP2 DUP2 MSTORE PUSH1 0x2 PUSH1 0x20 SWAP1 DUP2 MSTORE PUSH1 0x40 DUP1 DUP4 KECCAK256 PUSH1 0x1 PUSH1 0x1 PUSH1 0xA0 SHL SUB DUP7 AND DUP1 DUP6 MSTORE PUSH1 0x3 SWAP1 SWAP2 ADD DUP4 MSTORE SWAP3 DUP2 SWAP1 KECCAK256 DUP1 SLOAD PUSH1 0xFF NOT AND PUSH1 0x1 SWAP1 DUP2 OR SWAP1 SWAP2 SSTORE SWAP1 MLOAD SWAP1 DUP2 MSTORE SWAP2 SWAP3 SWAP2 PUSH32 0x58EFEAA91070E02FBCBC866786A01AB2D142A9DF696EBCD9FD1515E0954377FD SWAP2 ADD JUMPDEST PUSH1 0x40 MLOAD DUP1 SWAP2 SUB SWAP1 LOG3 POP JUMP JUMPDEST PUSH1 0x1 PUSH1 0x1 PUSH1 0xA0 SHL SUB DUP2 AND PUSH1 0x0 SWAP1 DUP2 MSTORE PUSH1 0x3 PUSH1 0x20 DUP2 SWAP1 MSTORE PUSH1 0x40 SWAP1 SWAP2 KECCAK256 ADD SLOAD PUSH1 0xFF AND DUP1 ISZERO PUSH2 0x39B JUMPI POP CALLER PUSH1 0x0 SWAP1 DUP2 MSTORE PUSH1 0x2 PUSH1 0x20 MSTORE PUSH1 0x40 SWAP1 KECCAK256 PUSH1 0x4 ADD SLOAD PUSH1 0xFF AND JUMPDEST DUP1 ISZERO PUSH2 0x3CD JUMPI POP CALLER PUSH1 0x0 SWAP1 DUP2 MSTORE PUSH1 0x2 PUSH1 0x20 SWAP1 DUP2 MSTORE PUSH1 0x40 DUP1 DUP4 KECCAK256 PUSH1 0x1 PUSH1 0x1 PUSH1 0xA0 SHL SUB DUP6 AND DUP5 MSTORE PUSH1 0x3 ADD SWAP1 SWAP2 MSTORE SWAP1 KECCAK256 SLOAD PUSH1 0xFF AND JUMPDEST PUSH2 0x3D6 JUMPI PUSH1 0x0 DUP1 REVERT JUMPDEST CALLER PUSH1 0x0 DUP2 DUP2 MSTORE PUSH1 0x2 PUSH1 0x20 SWAP1 DUP2 MSTORE PUSH1 0x40 DUP1 DUP4 KECCAK256 PUSH1 0x1 PUSH1 0x1 PUSH1 0xA0 SHL SUB DUP7 AND DUP1 DUP6 MSTORE PUSH1 0x3 SWAP1 SWAP2 ADD DUP4 MSTORE DUP2 DUP5 KECCAK256 DUP1 SLOAD PUSH1 0xFF NOT AND SWAP1 SSTORE SWAP1 MLOAD SWAP3 DUP4 MSTORE SWAP3 SWAP2 PUSH32 0x58EFEAA91070E02FBCBC866786A01AB2D142A9DF696EBCD9FD1515E0954377FD SWAP2 ADD PUSH2 0x352 JUMP JUMPDEST PUSH1 0x0 DUP1 PUSH1 0x0 DUP4 MLOAD PUSH1 0x41 EQ PUSH2 0x449 JUMPI PUSH1 0x0 DUP1 REVERT JUMPDEST POP POP POP PUSH1 0x20 DUP2 ADD MLOAD PUSH1 0x40 DUP3 ADD MLOAD PUSH1 0x60 SWAP1 SWAP3 ADD MLOAD PUSH1 0x0 BYTE SWAP3 SWAP1 SWAP2 SWAP1 JUMP JUMPDEST PUSH1 0x1 PUSH1 0x1 PUSH1 0xA0 SHL SUB DUP3 AND PUSH1 0x0 SWAP1 DUP2 MSTORE PUSH1 0x2 PUSH1 0x20 MSTORE PUSH1 0x40 SWAP1 KECCAK256 PUSH1 0x4 ADD SLOAD PUSH1 0xFF AND DUP1 ISZERO PUSH2 0x4F0 JUMPI POP CALLER PUSH1 0x0 SWAP1 DUP2 MSTORE PUSH1 0x2 PUSH1 0x20 MSTORE PUSH1 0x40 SWAP1 KECCAK256 PUSH1 0x4 ADD SLOAD PUSH1 0xFF AND DUP1 PUSH2 0x4F0 JUMPI POP CALLER PUSH1 0x0 SWAP1 DUP2 MSTORE PUSH1 0x3 PUSH1 0x20 DUP2 SWAP1 MSTORE PUSH1 0x40 SWAP1 SWAP2 KECCAK256 ADD SLOAD PUSH1 0xFF AND DUP1 ISZERO PUSH2 0x4F0 JUMPI POP PUSH1 0x1 PUSH1 0x1 PUSH1 0xA0 SHL SUB DUP3 AND PUSH1 0x0 SWAP1 DUP2 MSTORE PUSH1 0x2 PUSH1 0x20 SWAP1 DUP2 MSTORE PUSH1 0x40 DUP1 DUP4 KECCAK256 CALLER DUP5 MSTORE PUSH1 0x3 ADD SWAP1 SWAP2 MSTORE SWAP1 KECCAK256 SLOAD PUSH1 0xFF AND JUMPDEST PUSH2 0x4F9 JUMPI PUSH1 0x0 DUP1 REVERT JUMPDEST PUSH1 0x1 PUSH1 0x1 PUSH1 0xA0 SHL SUB SWAP1 SWAP2 AND PUSH1 0x0 SWAP1 DUP2 MSTORE PUSH1 0x5 PUSH1 0x20 MSTORE PUSH1 0x40 SWAP1 KECCAK256 PUSH1 0x1 ADD SSTORE JUMP JUMPDEST PUSH1 0x1 PUSH1 0x1 PUSH1 0xA0 SHL SUB DUP3 AND PUSH1 0x0 SWAP1 DUP2 MSTORE PUSH1 0x3 PUSH1 0x20 DUP2 SWAP1 MSTORE PUSH1 0x40 SWAP1 SWAP2 KECCAK256 ADD SLOAD PUSH1 0xFF AND ISZERO PUSH2 0x542 JUMPI PUSH1 0x0 DUP1 REVERT JUMPDEST PUSH1 0x1 PUSH1 0x1 PUSH1 0xA0 SHL SUB DUP3 AND PUSH1 0x0 SWAP1 DUP2 MSTORE PUSH1 0x3 PUSH1 0x20 SWAP1 DUP2 MSTORE PUSH1 0x40 SWAP1 SWAP2 KECCAK256 DUP6 MLOAD PUSH2 0x56B SWAP3 DUP8 ADD SWAP1 PUSH2 0x86B JUMP JUMPDEST POP PUSH1 0x1 PUSH1 0x1 PUSH1 0xA0 SHL SUB DUP3 AND PUSH1 0x0 SWAP1 DUP2 MSTORE PUSH1 0x3 PUSH1 0x20 SWAP1 DUP2 MSTORE PUSH1 0x40 SWAP1 SWAP2 KECCAK256 DUP5 MLOAD PUSH2 0x59B SWAP3 PUSH1 0x1 SWAP1 SWAP3 ADD SWAP2 DUP7 ADD SWAP1 PUSH2 0x86B JUMP JUMPDEST POP PUSH1 0x1 PUSH1 0x1 PUSH1 0xA0 SHL SUB DUP3 AND PUSH1 0x0 SWAP1 DUP2 MSTORE PUSH1 0x3 PUSH1 0x20 SWAP1 DUP2 MSTORE PUSH1 0x40 SWAP1 SWAP2 KECCAK256 DUP3 MLOAD PUSH2 0x5CB SWAP3 PUSH1 0x2 SWAP1 SWAP3 ADD SWAP2 DUP5 ADD SWAP1 PUSH2 0x86B JUMP JUMPDEST POP PUSH1 0x1 PUSH1 0x1 PUSH1 0xA0 SHL SUB DUP3 AND PUSH1 0x0 SWAP1 DUP2 MSTORE PUSH1 0x3 PUSH1 0x20 DUP2 SWAP1 MSTORE PUSH1 0x40 DUP3 KECCAK256 ADD DUP1 SLOAD PUSH1 0xFF NOT AND PUSH1 0x1 SWAP1 DUP2 OR SWAP1 SWAP2 SSTORE DUP1 SLOAD SWAP2 PUSH2 0x601 DUP4 PUSH2 0xB5B JUMP JUMPDEST SWAP1 SWAP2 SSTORE POP POP PUSH1 0x40 MLOAD PUSH1 0x1 PUSH1 0x1 PUSH1 0xA0 SHL SUB DUP4 AND SWAP1 PUSH32 0x4CD17B5D25F6EA7EFAA933B18D886D9EBCB6B66E8A67F82A70A472BF1FC2004D SWAP1 PUSH1 0x0 SWAP1 LOG2 POP POP POP POP JUMP JUMPDEST PUSH1 0x1 PUSH1 0x1 PUSH1 0xA0 SHL SUB DUP3 AND PUSH1 0x0 SWAP1 DUP2 MSTORE PUSH1 0x3 PUSH1 0x20 DUP2 SWAP1 MSTORE PUSH1 0x40 DUP3 KECCAK256 ADD SLOAD PUSH1 0xFF AND DUP1 ISZERO PUSH2 0x686 JUMPI POP PUSH1 0x1 PUSH1 0x1 PUSH1 0xA0 SHL SUB DUP3 AND PUSH1 0x0 SWAP1 DUP2 MSTORE PUSH1 0x2 PUSH1 0x20 MSTORE PUSH1 0x40 SWAP1 KECCAK256 PUSH1 0x4 ADD SLOAD PUSH1 0xFF AND JUMPDEST PUSH2 0x68F JUMPI PUSH1 0x0 DUP1 REVERT JUMPDEST POP PUSH1 0x1 PUSH1 0x1 PUSH1 0xA0 SHL SUB DUP1 DUP3 AND PUSH1 0x0 SWAP1 DUP2 MSTORE PUSH1 0x2 PUSH1 0x20 SWAP1 DUP2 MSTORE PUSH1 0x40 DUP1 DUP4 KECCAK256 SWAP4 DUP7 AND DUP4 MSTORE PUSH1 0x3 SWAP1 SWAP4 ADD SWAP1 MSTORE KECCAK256 SLOAD PUSH1 0xFF AND SWAP3 SWAP2 POP POP JUMP JUMPDEST CALLER PUSH1 0x0 SWAP1 DUP2 MSTORE PUSH1 0x3 PUSH1 0x20 DUP2 SWAP1 MSTORE PUSH1 0x40 SWAP1 SWAP2 KECCAK256 ADD SLOAD PUSH1 0xFF AND DUP1 ISZERO PUSH2 0x702 JUMPI POP PUSH1 0x1 PUSH1 0x1 PUSH1 0xA0 SHL SUB DUP3 AND PUSH1 0x0 SWAP1 DUP2 MSTORE PUSH1 0x2 PUSH1 0x20 MSTORE PUSH1 0x40 SWAP1 KECCAK256 PUSH1 0x4 ADD SLOAD PUSH1 0xFF AND ISZERO JUMPDEST PUSH2 0x70B JUMPI PUSH1 0x0 DUP1 REVERT JUMPDEST PUSH1 0x1 PUSH1 0x1 PUSH1 0xA0 SHL SUB DUP3 AND PUSH1 0x0 SWAP1 DUP2 MSTORE PUSH1 0x2 PUSH1 0x20 SWAP1 DUP2 MSTORE PUSH1 0x40 SWAP1 SWAP2 KECCAK256 DUP6 MLOAD PUSH2 0x734 SWAP3 DUP8 ADD SWAP1 PUSH2 0x86B JUMP JUMPDEST POP PUSH1 0x1 PUSH1 0x1 PUSH1 0xA0 SHL SUB DUP3 AND PUSH1 0x0 SWAP1 DUP2 MSTORE PUSH1 0x2 PUSH1 0x20 SWAP1 DUP2 MSTORE PUSH1 0x40 SWAP1 SWAP2 KECCAK256 DUP5 MLOAD PUSH2 0x764 SWAP3 PUSH1 0x1 SWAP1 SWAP3 ADD SWAP2 DUP7 ADD SWAP1 PUSH2 0x86B JUMP JUMPDEST POP PUSH1 0x1 PUSH1 0x1 PUSH1 0xA0 SHL SUB DUP3 AND PUSH1 0x0 SWAP1 DUP2 MSTORE PUSH1 0x2 PUSH1 0x20 DUP2 DUP2 MSTORE PUSH1 0x40 SWAP1 SWAP3 KECCAK256 DUP4 MLOAD PUSH2 0x794 SWAP4 SWAP2 SWAP1 SWAP3 ADD SWAP2 SWAP1 DUP5 ADD SWAP1 PUSH2 0x86B JUMP JUMPDEST POP PUSH1 0x1 PUSH1 0x1 PUSH1 0xA0 SHL SUB DUP3 AND PUSH1 0x0 DUP2 DUP2 MSTORE PUSH1 0x2 PUSH1 0x20 SWAP1 DUP2 MSTORE PUSH1 0x40 DUP1 DUP4 KECCAK256 CALLER DUP1 DUP6 MSTORE PUSH1 0x3 DUP3 ADD DUP5 MSTORE DUP3 DUP6 KECCAK256 DUP1 SLOAD PUSH1 0x1 PUSH1 0xFF NOT SWAP2 DUP3 AND DUP2 OR SWAP1 SWAP3 SSTORE SWAP7 DUP7 MSTORE PUSH1 0x4 SWAP1 SWAP3 ADD DUP1 SLOAD SWAP1 SWAP7 AND DUP3 OR SWAP1 SWAP6 SSTORE PUSH1 0x5 SWAP1 SWAP3 MSTORE DUP3 KECCAK256 DUP1 SLOAD PUSH1 0x1 PUSH1 0x1 PUSH1 0xA0 SHL SUB NOT AND SWAP1 SWAP4 OR DUP4 SSTORE PUSH32 0xE3B0C44298FC1C149AFBF4C8996FB92427AE41E4649B934CA495991B7852B855 SWAP3 ADD SWAP2 SWAP1 SWAP2 SSTORE DUP1 SLOAD SWAP1 DUP1 PUSH2 0x82A DUP4 PUSH2 0xB5B JUMP JUMPDEST SWAP1 SWAP2 SSTORE POP POP PUSH1 0x40 MLOAD CALLER SWAP1 PUSH1 0x1 PUSH1 0x1 PUSH1 0xA0 SHL SUB DUP5 AND SWAP1 PUSH32 0x98D045482CDB3A3EB48EAFFED7579D8339191329FF0088239DD97AC546D59CBA SWAP1 PUSH1 0x0 SWAP1 LOG3 POP POP POP POP JUMP JUMPDEST DUP3 DUP1 SLOAD PUSH2 0x877 SWAP1 PUSH2 0xB82 JUMP JUMPDEST SWAP1 PUSH1 0x0 MSTORE PUSH1 0x20 PUSH1 0x0 KECCAK256 SWAP1 PUSH1 0x1F ADD PUSH1 0x20 SWAP1 DIV DUP2 ADD SWAP3 DUP3 PUSH2 0x899 JUMPI PUSH1 0x0 DUP6 SSTORE PUSH2 0x8DF JUMP JUMPDEST DUP3 PUSH1 0x1F LT PUSH2 0x8B2 JUMPI DUP1 MLOAD PUSH1 0xFF NOT AND DUP4 DUP1 ADD OR DUP6 SSTORE PUSH2 0x8DF JUMP JUMPDEST DUP3 DUP1 ADD PUSH1 0x1 ADD DUP6 SSTORE DUP3 ISZERO PUSH2 0x8DF JUMPI SWAP2 DUP3 ADD JUMPDEST DUP3 DUP2 GT ISZERO PUSH2 0x8DF JUMPI DUP3 MLOAD DUP3 SSTORE SWAP2 PUSH1 0x20 ADD SWAP2 SWAP1 PUSH1 0x1 ADD SWAP1 PUSH2 0x8C4 JUMP JUMPDEST POP PUSH2 0x8EB SWAP3 SWAP2 POP PUSH2 0x8EF JUMP JUMPDEST POP SWAP1 JUMP JUMPDEST JUMPDEST DUP1 DUP3 GT ISZERO PUSH2 0x8EB JUMPI PUSH1 0x0 DUP2 SSTORE PUSH1 0x1 ADD PUSH2 0x8F0 JUMP JUMPDEST DUP1 CALLDATALOAD PUSH1 0x1 PUSH1 0x1 PUSH1 0xA0 SHL SUB DUP2 AND DUP2 EQ PUSH2 0x91B JUMPI PUSH1 0x0 DUP1 REVERT JUMPDEST SWAP2 SWAP1 POP JUMP JUMPDEST PUSH1 0x0 PUSH1 0x20 DUP3 DUP5 SUB SLT ISZERO PUSH2 0x932 JUMPI PUSH1 0x0 DUP1 REVERT JUMPDEST PUSH2 0x93B DUP3 PUSH2 0x904 JUMP JUMPDEST SWAP4 SWAP3 POP POP POP JUMP JUMPDEST PUSH1 0x0 DUP1 PUSH1 0x0 DUP1 PUSH1 0x80 DUP6 DUP8 SUB SLT ISZERO PUSH2 0x958 JUMPI PUSH1 0x0 DUP1 REVERT JUMPDEST DUP5 CALLDATALOAD SWAP4 POP PUSH1 0x20 DUP6 ADD CALLDATALOAD PUSH1 0xFF DUP2 AND DUP2 EQ PUSH2 0x970 JUMPI PUSH1 0x0 DUP1 REVERT JUMPDEST SWAP4 SWAP7 SWAP4 SWAP6 POP POP POP POP PUSH1 0x40 DUP3 ADD CALLDATALOAD SWAP2 PUSH1 0x60 ADD CALLDATALOAD SWAP1 JUMP JUMPDEST PUSH4 0x4E487B71 PUSH1 0xE0 SHL PUSH1 0x0 MSTORE PUSH1 0x41 PUSH1 0x4 MSTORE PUSH1 0x24 PUSH1 0x0 REVERT JUMPDEST PUSH1 0x0 DUP3 PUSH1 0x1F DUP4 ADD SLT PUSH2 0x9AC JUMPI PUSH1 0x0 DUP1 REVERT JUMPDEST DUP2 CALLDATALOAD PUSH8 0xFFFFFFFFFFFFFFFF DUP1 DUP3 GT ISZERO PUSH2 0x9C7 JUMPI PUSH2 0x9C7 PUSH2 0x985 JUMP JUMPDEST PUSH1 0x40 MLOAD PUSH1 0x1F DUP4 ADD PUSH1 0x1F NOT SWAP1 DUP2 AND PUSH1 0x3F ADD AND DUP2 ADD SWAP1 DUP3 DUP3 GT DUP2 DUP4 LT OR ISZERO PUSH2 0x9EF JUMPI PUSH2 0x9EF PUSH2 0x985 JUMP JUMPDEST DUP2 PUSH1 0x40 MSTORE DUP4 DUP2 MSTORE DUP7 PUSH1 0x20 DUP6 DUP9 ADD ADD GT ISZERO PUSH2 0xA08 JUMPI PUSH1 0x0 DUP1 REVERT JUMPDEST DUP4 PUSH1 0x20 DUP8 ADD PUSH1 0x20 DUP4 ADD CALLDATACOPY PUSH1 0x0 PUSH1 0x20 DUP6 DUP4 ADD ADD MSTORE DUP1 SWAP5 POP POP POP POP POP SWAP3 SWAP2 POP POP JUMP JUMPDEST PUSH1 0x0 PUSH1 0x20 DUP3 DUP5 SUB SLT ISZERO PUSH2 0xA3A JUMPI PUSH1 0x0 DUP1 REVERT JUMPDEST DUP2 CALLDATALOAD PUSH8 0xFFFFFFFFFFFFFFFF DUP2 GT ISZERO PUSH2 0xA51 JUMPI PUSH1 0x0 DUP1 REVERT JUMPDEST PUSH2 0xA5D DUP5 DUP3 DUP6 ADD PUSH2 0x99B JUMP JUMPDEST SWAP5 SWAP4 POP POP POP POP JUMP JUMPDEST PUSH1 0x0 DUP1 PUSH1 0x40 DUP4 DUP6 SUB SLT ISZERO PUSH2 0xA78 JUMPI PUSH1 0x0 DUP1 REVERT JUMPDEST PUSH2 0xA81 DUP4 PUSH2 0x904 JUMP JUMPDEST SWAP5 PUSH1 0x20 SWAP4 SWAP1 SWAP4 ADD CALLDATALOAD SWAP4 POP POP POP JUMP JUMPDEST PUSH1 0x0 DUP1 PUSH1 0x0 DUP1 PUSH1 0x80 DUP6 DUP8 SUB SLT ISZERO PUSH2 0xAA5 JUMPI PUSH1 0x0 DUP1 REVERT JUMPDEST DUP5 CALLDATALOAD PUSH8 0xFFFFFFFFFFFFFFFF DUP1 DUP3 GT ISZERO PUSH2 0xABD JUMPI PUSH1 0x0 DUP1 REVERT JUMPDEST PUSH2 0xAC9 DUP9 DUP4 DUP10 ADD PUSH2 0x99B JUMP JUMPDEST SWAP6 POP PUSH1 0x20 DUP8 ADD CALLDATALOAD SWAP2 POP DUP1 DUP3 GT ISZERO PUSH2 0xADF JUMPI PUSH1 0x0 DUP1 REVERT JUMPDEST PUSH2 0xAEB DUP9 DUP4 DUP10 ADD PUSH2 0x99B JUMP JUMPDEST SWAP5 POP PUSH2 0xAF9 PUSH1 0x40 DUP9 ADD PUSH2 0x904 JUMP JUMPDEST SWAP4 POP PUSH1 0x60 DUP8 ADD CALLDATALOAD SWAP2 POP DUP1 DUP3 GT ISZERO PUSH2 0xB0F JUMPI PUSH1 0x0 DUP1 REVERT JUMPDEST POP PUSH2 0xB1C DUP8 DUP3 DUP9 ADD PUSH2 0x99B JUMP JUMPDEST SWAP2 POP POP SWAP3 SWAP6 SWAP2 SWAP5 POP SWAP3 POP JUMP JUMPDEST PUSH1 0x0 DUP1 PUSH1 0x40 DUP4 DUP6 SUB SLT ISZERO PUSH2 0xB3B JUMPI PUSH1 0x0 DUP1 REVERT JUMPDEST PUSH2 0xB44 DUP4 PUSH2 0x904 JUMP JUMPDEST SWAP2 POP PUSH2 0xB52 PUSH1 0x20 DUP5 ADD PUSH2 0x904 JUMP JUMPDEST SWAP1 POP SWAP3 POP SWAP3 SWAP1 POP JUMP JUMPDEST PUSH1 0x0 PUSH1 0x1 DUP3 ADD PUSH2 0xB7B JUMPI PUSH4 0x4E487B71 PUSH1 0xE0 SHL PUSH1 0x0 MSTORE PUSH1 0x11 PUSH1 0x4 MSTORE PUSH1 0x24 PUSH1 0x0 REVERT JUMPDEST POP PUSH1 0x1 ADD SWAP1 JUMP JUMPDEST PUSH1 0x1 DUP2 DUP2 SHR SWAP1 DUP3 AND DUP1 PUSH2 0xB96 JUMPI PUSH1 0x7F DUP3 AND SWAP2 POP JUMPDEST PUSH1 0x20 DUP3 LT DUP2 SUB PUSH2 0xBB6 JUMPI PUSH4 0x4E487B71 PUSH1 0xE0 SHL PUSH1 0x0 MSTORE PUSH1 0x22 PUSH1 0x4 MSTORE PUSH1 0x24 PUSH1 0x0 REVERT JUMPDEST POP SWAP2 SWAP1 POP JUMP INVALID LOG2 PUSH5 0x6970667358 0x22 SLT KECCAK256 0xF8 0xDF 0xE4 PUSH23 0xFED2102C28495163A11404FABA472416A3E7F5488C95D7 0xC2 CODECOPY CHAINID PUSH19 0xBB64736F6C634300080D003300000000000000 ",
  "sha1": "28d2bf1c366d34ac9e4f973d77b5c3951cbf1c44",
  "source": "pragma solidity >=0.7.0 <0.9.0;\n\ncontract EHR {\n\n    uint patientCount = 0;\n    uint doctorCount = 0;\n\n\n    struct Patient{\n        string firstName;\n        string lastName;\n        /// public key of patient\n        bytes pubKey;\n        /// doctors authorized to read/write this patient's EHR\n        mapping (address => bool) authorized;\n        bool valid;\n    }\n\n    struct Doctor{\n        string firstName;\n        string lastName;\n        /// public key of doctor\n        bytes pubKey;\n        bool valid;\n    }\n\n    struct MedicalRecord{\n        /// address of the doctor who created this record\n        address doctorAddress;\n        /// hash of latest file version\n        bytes32 hash;\n        bool valid;\n    }\n    \n    /// associate patient's wallet address with Patient struct\n    mapping (address => Patient) patients;\n    /// associate doctot's wallet address with Doctor struct\n    mapping (address => Doctor) doctors;\n    /// associate patient's wallet address with doctor address\n    mapping (address => address) patientProviders;\n    /// associate patient's wallet address with MedicalRecord\n    mapping (address => MedicalRecord) records;\n\n    event PatientCreation(address indexed _patient, address indexed _doctor);\n    event DoctorCreation(address indexed _doctor);\n    event DoctorAuth(address indexed _patient, address indexed _doctor, bool isAuthorized);\n    event MedicalRecordView(address indexed _patient, address indexed _viewer);\n    event MedicalRecordUpdate(address indexed _patient, address indexed _updator, bytes32 fileHash);\n\n\n    function createPatient(\n        string memory _firstName, \n        string memory _lastName, \n        address _patientAddress, \n        bytes memory _patientPublicKey\n    ) \n        public \n    {\n        /// only allow doctors to create patients, and patient can't already exist\n        require(doctors[msg.sender].valid && !patients[_patientAddress].valid);\n        patients[_patientAddress].firstName = _firstName;\n        patients[_patientAddress].lastName = _lastName;\n        patients[_patientAddress].pubKey = _patientPublicKey;\n        patients[_patientAddress].authorized[msg.sender] = true;\n        patients[_patientAddress].valid = true;\n        records[_patientAddress].doctorAddress = msg.sender;\n        /// hash of null data\n        records[_patientAddress].hash = 0xe3b0c44298fc1c149afbf4c8996fb92427ae41e4649b934ca495991b7852b855;\n        patientCount++;\n        emit PatientCreation(_patientAddress, msg.sender);\n    }\n\n    function createDoctor(\n        string memory _firstName, \n        string memory _lastName, \n        address _doctorAddress, \n        bytes memory _doctorPublicKey\n    ) \n        public\n    {\n        /// only admin can create doctor, and doctor must not already exist\n        require(!doctors[_doctorAddress].valid);\n        doctors[_doctorAddress].firstName = _firstName;\n        doctors[_doctorAddress].lastName = _lastName;\n        doctors[_doctorAddress].pubKey = _doctorPublicKey;\n        doctors[_doctorAddress].valid = true;\n        doctorCount++;\n        emit DoctorCreation(_doctorAddress);\n    }\n\n    function authorizeDoctor(address _doctorAddress) public\n    {\n        /// doctor should exist and patient should exist and doctor shouldn't already have authorization\n        require(doctors[_doctorAddress].valid \n                && patients[msg.sender].valid\n                && !patients[msg.sender].authorized[_doctorAddress]);\n        patients[msg.sender].authorized[_doctorAddress] = true;\n        emit DoctorAuth(msg.sender, _doctorAddress, true);\n    }\n\n    function deauthorizeDoctor(address _doctorAddress) public\n    {\n        /// doctor should exist and patient should exist and doctor should have authorization\n        require(doctors[_doctorAddress].valid \n                && patients[msg.sender].valid \n                && patients[msg.sender].authorized[_doctorAddress]);\n        patients[msg.sender].authorized[_doctorAddress] = false;\n        emit DoctorAuth(msg.sender, _doctorAddress, false);\n    }\n\n    function updateRecordHash(address _patientAddress, bytes32 _hash) public {\n        /// patient should exist and either (sender is patient) or (sender is doctor and doctor is authorized)\n        require(patients[_patientAddress].valid && (patients[msg.sender].valid || (doctors[msg.sender].valid && patients[_patientAddress].authorized[msg.sender])));\n        records[_patientAddress].hash = _hash;\n    }\n\n    function patientExists(address _patientAddress) public view returns (bool) {\n        return patients[_patientAddress].valid;\n    }\n\n    function doctorExists(address _doctorAddress) public view returns (bool) {\n        return doctors[_doctorAddress].valid;\n    }\n\n    function doctorAuthorized(address _doctorAddress, address _patientAddress) public view returns (bool) {\n        require(doctors[_doctorAddress].valid && patients[_patientAddress].valid);\n        return patients[_patientAddress].authorized[_doctorAddress];\n    }\n\n    function getAddress(bytes memory pubkey) public pure returns (address) {\n        return address(uint160(uint256(keccak256(pubkey))));\n    }\n\n    //input a signature and determine the v, r and s values\n    function splitSignature(bytes memory signature) public pure\n        returns (uint8 v, bytes32 r, bytes32 s)\n    {\n        require(signature.length == 65);\n\n        assembly {\n            // first 32 bytes, after the length prefix.\n            r := mload(add(signature, 32))\n            // second 32 bytes.\n            s := mload(add(signature, 64))\n            // final byte (first byte of the next 32 bytes).\n            v := byte(0, mload(add(signature, 96)))\n        }\n\n        return (v, r, s);\n    }\n\n    //input a message hash, v, r and s values and generate the public key\n    function recoverPublicAddress (bytes32 messagehash, uint8 v, bytes32 r, bytes32 s) public pure\n    returns (address sender) {\n        return ecrecover(messagehash, v, r, s);\n  }\n\n}",
  "sourcePath": "contracts/EHR.sol",
  "type": "contract"
}