{
  "abi": [
    {
      "inputs": [],
      "stateMutability": "payable",
      "type": "constructor"
    },
    {
      "inputs": [],
      "name": "amountAllowed",
      "outputs": [
        {
          "internalType": "uint256",
          "name": "",
          "type": "uint256"
        }
      ],
      "stateMutability": "view",
      "type": "function"
    },
    {
      "inputs": [],
      "name": "donateTofaucet",
      "outputs": [],
      "stateMutability": "payable",
      "type": "function"
    },
    {
      "inputs": [
        {
          "internalType": "address",
          "name": "",
          "type": "address"
        }
      ],
      "name": "lockTime",
      "outputs": [
        {
          "internalType": "uint256",
          "name": "",
          "type": "uint256"
        }
      ],
      "stateMutability": "view",
      "type": "function"
    },
    {
      "inputs": [],
      "name": "owner",
      "outputs": [
        {
          "internalType": "address",
          "name": "",
          "type": "address"
        }
      ],
      "stateMutability": "view",
      "type": "function"
    },
    {
      "inputs": [
        {
          "internalType": "address payable",
          "name": "_requestor",
          "type": "address"
        }
      ],
      "name": "requestTokens",
      "outputs": [],
      "stateMutability": "payable",
      "type": "function"
    },
    {
      "inputs": [
        {
          "internalType": "uint256",
          "name": "newAmountAllowed",
          "type": "uint256"
        }
      ],
      "name": "setAmountallowed",
      "outputs": [],
      "stateMutability": "nonpayable",
      "type": "function"
    },
    {
      "inputs": [
        {
          "internalType": "address",
          "name": "newOwner",
          "type": "address"
        }
      ],
      "name": "setOwner",
      "outputs": [],
      "stateMutability": "nonpayable",
      "type": "function"
    }
  ],
  "bytecode": "6080604052670de0b6b3a7640000600155600080546001600160a01b03191633179055610406806100316000396000f3fe6080604052600436106100705760003560e01c80638da5cb5b1161004e5780638da5cb5b146100aa5780639ad2cd14146100e7578063a4beda631461010b578063f3aa52a11461013857600080fd5b806313af403514610075578063580f390414610097578063605e73cd14610095575b600080fd5b34801561008157600080fd5b5061009561009036600461032b565b610158565b005b6100956100a536600461032b565b6101ad565b3480156100b657600080fd5b506000546100ca906001600160a01b031681565b6040516001600160a01b0390911681526020015b60405180910390f35b3480156100f357600080fd5b506100fd60015481565b6040519081526020016100de565b34801561011757600080fd5b506100fd61012636600461032b565b60026020526000908152604090205481565b34801561014457600080fd5b5061009561015336600461034f565b6102e4565b6000546001600160a01b0316331461018b5760405162461bcd60e51b815260040161018290610368565b60405180910390fd5b600080546001600160a01b0319166001600160a01b0392909216919091179055565b3360009081526002602052604090205442116102255760405162461bcd60e51b815260206004820152603160248201527f6c6f636b2074696d6520686173206e6f7420657870697265642e20506c65617360448201527032903a393c9030b3b0b4b7103630ba32b960791b6064820152608401610182565b600154471161028c5760405162461bcd60e51b815260206004820152602d60248201527f4e6f7420656e6f7567682066756e647320696e20746865206661756365742e2060448201526c506c6561736520646f6e61746560981b6064820152608401610182565b6001546040516001600160a01b0383169180156108fc02916000818181858888f193505050501580156102c3573d6000803e3d6000fd5b506102d142620151806103aa565b3360009081526002602052604090205550565b6000546001600160a01b0316331461030e5760405162461bcd60e51b815260040161018290610368565b600155565b6001600160a01b038116811461032857600080fd5b50565b60006020828403121561033d57600080fd5b813561034881610313565b9392505050565b60006020828403121561036157600080fd5b5035919050565b60208082526022908201527f4f6e6c79206f776e65722063616e2063616c6c20746869732066756e6374696f604082015261371760f11b606082015260800190565b600082198211156103cb57634e487b7160e01b600052601160045260246000fd5b50019056fea264697066735822122007b53caea8689bc2cf63ff7937356fb457fd9178bc58646ee627cec2490d0a3a64736f6c634300080d0033",
  "bytecodeSha1": "924665a5b1dde54004ea98be069317578b7138fb",
  "compiler": {
    "evm_version": "istanbul",
    "optimizer": {
      "enabled": true,
      "runs": 200
    },
    "version": "0.8.13+commit.abaa5c0e"
  },
  "contractName": "Faucet",
  "language": "Solidity",
  "natspec": {
    "kind": "dev",
    "methods": {},
    "version": 1
  },
  "opcodes": "PUSH1 0x80 PUSH1 0x40 MSTORE PUSH1 0x4 CALLDATASIZE LT PUSH2 0x70 JUMPI PUSH1 0x0 CALLDATALOAD PUSH1 0xE0 SHR DUP1 PUSH4 0x8DA5CB5B GT PUSH2 0x4E JUMPI DUP1 PUSH4 0x8DA5CB5B EQ PUSH2 0xAA JUMPI DUP1 PUSH4 0x9AD2CD14 EQ PUSH2 0xE7 JUMPI DUP1 PUSH4 0xA4BEDA63 EQ PUSH2 0x10B JUMPI DUP1 PUSH4 0xF3AA52A1 EQ PUSH2 0x138 JUMPI PUSH1 0x0 DUP1 REVERT JUMPDEST DUP1 PUSH4 0x13AF4035 EQ PUSH2 0x75 JUMPI DUP1 PUSH4 0x580F3904 EQ PUSH2 0x97 JUMPI DUP1 PUSH4 0x605E73CD EQ PUSH2 0x95 JUMPI JUMPDEST PUSH1 0x0 DUP1 REVERT JUMPDEST CALLVALUE DUP1 ISZERO PUSH2 0x81 JUMPI PUSH1 0x0 DUP1 REVERT JUMPDEST POP PUSH2 0x95 PUSH2 0x90 CALLDATASIZE PUSH1 0x4 PUSH2 0x32B JUMP JUMPDEST PUSH2 0x158 JUMP JUMPDEST STOP JUMPDEST PUSH2 0x95 PUSH2 0xA5 CALLDATASIZE PUSH1 0x4 PUSH2 0x32B JUMP JUMPDEST PUSH2 0x1AD JUMP JUMPDEST CALLVALUE DUP1 ISZERO PUSH2 0xB6 JUMPI PUSH1 0x0 DUP1 REVERT JUMPDEST POP PUSH1 0x0 SLOAD PUSH2 0xCA SWAP1 PUSH1 0x1 PUSH1 0x1 PUSH1 0xA0 SHL SUB AND DUP2 JUMP JUMPDEST PUSH1 0x40 MLOAD PUSH1 0x1 PUSH1 0x1 PUSH1 0xA0 SHL SUB SWAP1 SWAP2 AND DUP2 MSTORE PUSH1 0x20 ADD JUMPDEST PUSH1 0x40 MLOAD DUP1 SWAP2 SUB SWAP1 RETURN JUMPDEST CALLVALUE DUP1 ISZERO PUSH2 0xF3 JUMPI PUSH1 0x0 DUP1 REVERT JUMPDEST POP PUSH2 0xFD PUSH1 0x1 SLOAD DUP2 JUMP JUMPDEST PUSH1 0x40 MLOAD SWAP1 DUP2 MSTORE PUSH1 0x20 ADD PUSH2 0xDE JUMP JUMPDEST CALLVALUE DUP1 ISZERO PUSH2 0x117 JUMPI PUSH1 0x0 DUP1 REVERT JUMPDEST POP PUSH2 0xFD PUSH2 0x126 CALLDATASIZE PUSH1 0x4 PUSH2 0x32B JUMP JUMPDEST PUSH1 0x2 PUSH1 0x20 MSTORE PUSH1 0x0 SWAP1 DUP2 MSTORE PUSH1 0x40 SWAP1 KECCAK256 SLOAD DUP2 JUMP JUMPDEST CALLVALUE DUP1 ISZERO PUSH2 0x144 JUMPI PUSH1 0x0 DUP1 REVERT JUMPDEST POP PUSH2 0x95 PUSH2 0x153 CALLDATASIZE PUSH1 0x4 PUSH2 0x34F JUMP JUMPDEST PUSH2 0x2E4 JUMP JUMPDEST PUSH1 0x0 SLOAD PUSH1 0x1 PUSH1 0x1 PUSH1 0xA0 SHL SUB AND CALLER EQ PUSH2 0x18B JUMPI PUSH1 0x40 MLOAD PUSH3 0x461BCD PUSH1 0xE5 SHL DUP2 MSTORE PUSH1 0x4 ADD PUSH2 0x182 SWAP1 PUSH2 0x368 JUMP JUMPDEST PUSH1 0x40 MLOAD DUP1 SWAP2 SUB SWAP1 REVERT JUMPDEST PUSH1 0x0 DUP1 SLOAD PUSH1 0x1 PUSH1 0x1 PUSH1 0xA0 SHL SUB NOT AND PUSH1 0x1 PUSH1 0x1 PUSH1 0xA0 SHL SUB SWAP3 SWAP1 SWAP3 AND SWAP2 SWAP1 SWAP2 OR SWAP1 SSTORE JUMP JUMPDEST CALLER PUSH1 0x0 SWAP1 DUP2 MSTORE PUSH1 0x2 PUSH1 0x20 MSTORE PUSH1 0x40 SWAP1 KECCAK256 SLOAD TIMESTAMP GT PUSH2 0x225 JUMPI PUSH1 0x40 MLOAD PUSH3 0x461BCD PUSH1 0xE5 SHL DUP2 MSTORE PUSH1 0x20 PUSH1 0x4 DUP3 ADD MSTORE PUSH1 0x31 PUSH1 0x24 DUP3 ADD MSTORE PUSH32 0x6C6F636B2074696D6520686173206E6F7420657870697265642E20506C656173 PUSH1 0x44 DUP3 ADD MSTORE PUSH17 0x32903A393C9030B3B0B4B7103630BA32B9 PUSH1 0x79 SHL PUSH1 0x64 DUP3 ADD MSTORE PUSH1 0x84 ADD PUSH2 0x182 JUMP JUMPDEST PUSH1 0x1 SLOAD SELFBALANCE GT PUSH2 0x28C JUMPI PUSH1 0x40 MLOAD PUSH3 0x461BCD PUSH1 0xE5 SHL DUP2 MSTORE PUSH1 0x20 PUSH1 0x4 DUP3 ADD MSTORE PUSH1 0x2D PUSH1 0x24 DUP3 ADD MSTORE PUSH32 0x4E6F7420656E6F7567682066756E647320696E20746865206661756365742E20 PUSH1 0x44 DUP3 ADD MSTORE PUSH13 0x506C6561736520646F6E617465 PUSH1 0x98 SHL PUSH1 0x64 DUP3 ADD MSTORE PUSH1 0x84 ADD PUSH2 0x182 JUMP JUMPDEST PUSH1 0x1 SLOAD PUSH1 0x40 MLOAD PUSH1 0x1 PUSH1 0x1 PUSH1 0xA0 SHL SUB DUP4 AND SWAP2 DUP1 ISZERO PUSH2 0x8FC MUL SWAP2 PUSH1 0x0 DUP2 DUP2 DUP2 DUP6 DUP9 DUP9 CALL SWAP4 POP POP POP POP ISZERO DUP1 ISZERO PUSH2 0x2C3 JUMPI RETURNDATASIZE PUSH1 0x0 DUP1 RETURNDATACOPY RETURNDATASIZE PUSH1 0x0 REVERT JUMPDEST POP PUSH2 0x2D1 TIMESTAMP PUSH3 0x15180 PUSH2 0x3AA JUMP JUMPDEST CALLER PUSH1 0x0 SWAP1 DUP2 MSTORE PUSH1 0x2 PUSH1 0x20 MSTORE PUSH1 0x40 SWAP1 KECCAK256 SSTORE POP JUMP JUMPDEST PUSH1 0x0 SLOAD PUSH1 0x1 PUSH1 0x1 PUSH1 0xA0 SHL SUB AND CALLER EQ PUSH2 0x30E JUMPI PUSH1 0x40 MLOAD PUSH3 0x461BCD PUSH1 0xE5 SHL DUP2 MSTORE PUSH1 0x4 ADD PUSH2 0x182 SWAP1 PUSH2 0x368 JUMP JUMPDEST PUSH1 0x1 SSTORE JUMP JUMPDEST PUSH1 0x1 PUSH1 0x1 PUSH1 0xA0 SHL SUB DUP2 AND DUP2 EQ PUSH2 0x328 JUMPI PUSH1 0x0 DUP1 REVERT JUMPDEST POP JUMP JUMPDEST PUSH1 0x0 PUSH1 0x20 DUP3 DUP5 SUB SLT ISZERO PUSH2 0x33D JUMPI PUSH1 0x0 DUP1 REVERT JUMPDEST DUP2 CALLDATALOAD PUSH2 0x348 DUP2 PUSH2 0x313 JUMP JUMPDEST SWAP4 SWAP3 POP POP POP JUMP JUMPDEST PUSH1 0x0 PUSH1 0x20 DUP3 DUP5 SUB SLT ISZERO PUSH2 0x361 JUMPI PUSH1 0x0 DUP1 REVERT JUMPDEST POP CALLDATALOAD SWAP2 SWAP1 POP JUMP JUMPDEST PUSH1 0x20 DUP1 DUP3 MSTORE PUSH1 0x22 SWAP1 DUP3 ADD MSTORE PUSH32 0x4F6E6C79206F776E65722063616E2063616C6C20746869732066756E6374696F PUSH1 0x40 DUP3 ADD MSTORE PUSH2 0x3717 PUSH1 0xF1 SHL PUSH1 0x60 DUP3 ADD MSTORE PUSH1 0x80 ADD SWAP1 JUMP JUMPDEST PUSH1 0x0 DUP3 NOT DUP3 GT ISZERO PUSH2 0x3CB JUMPI PUSH4 0x4E487B71 PUSH1 0xE0 SHL PUSH1 0x0 MSTORE PUSH1 0x11 PUSH1 0x4 MSTORE PUSH1 0x24 PUSH1 0x0 REVERT JUMPDEST POP ADD SWAP1 JUMP INVALID LOG2 PUSH5 0x6970667358 0x22 SLT KECCAK256 SMOD 0xB5 EXTCODECOPY 0xAE 0xA8 PUSH9 0x9BC2CF63FF7937356F 0xB4 JUMPI REVERT SWAP2 PUSH25 0xBC58646EE627CEC2490D0A3A64736F6C634300080D00330000 ",
  "sha1": "af4ef250d4a7174f276ccee4c68a7c59ac5e31d9",
  "source": "pragma solidity ^0.8.3;\n\n\n/*\nThis code is adapted from Crypto Market Pool.\n*/\ncontract Faucet {\n\t\n\n    //state variable to keep track of owner and amount of ETHER to dispense\n    address public owner;\n    uint public amountAllowed = 1000000000000000000;\n\n\n    //mapping to keep track of requested rokens\n    //Address and blocktime + 1 day is saved in TimeLock\n    mapping(address => uint) public lockTime;\n\n\n    //constructor to set the owner\n\tconstructor() payable {\n\t\towner = msg.sender;\n\t}\n\n    //function modifier\n    modifier onlyOwner {\n        require(msg.sender == owner, \"Only owner can call this function.\");\n        _; \n    }\n\n\n    //function to change the owner.  Only the owner of the contract can call this function\n    function setOwner(address newOwner) public onlyOwner {\n        owner = newOwner;\n    }\n\n\n    //function to set the amount allowable to be claimed. Only the owner can call this function\n    function setAmountallowed(uint newAmountAllowed) public onlyOwner {\n        amountAllowed = newAmountAllowed;\n    }\n\n\n    //function to donate funds to the faucet contract\n\tfunction donateTofaucet() public payable {\n\t}\n\n\n    //function to send tokens from faucet to an address\n    function requestTokens(address payable _requestor) public payable {\n\n        //perform a few checks to make sure function can execute\n        require(block.timestamp > lockTime[msg.sender], \"lock time has not expired. Please try again later\");\n        require(address(this).balance > amountAllowed, \"Not enough funds in the faucet. Please donate\");\n\n        //if the balance of this contract is greater then the requested amount send funds\n        _requestor.transfer(amountAllowed);        \n \n        //updates locktime 1 day from now\n        lockTime[msg.sender] = block.timestamp + 1 days;\n    }\n}",
  "sourcePath": "contracts/Faucet.sol",
  "type": "contract"
}